{
    "_format": "hh-sol-artifact-1",
    "contractName": "NFTMarketplace",
    "sourceName": "contracts/NFTMarketplace.sol",
    "abi": [
        {
            "inputs": [],
            "stateMutability": "nonpayable",
            "type": "constructor"
        },
        {
            "anonymous": false,
            "inputs": [
                {
                    "indexed": true,
                    "internalType": "uint256",
                    "name": "tokenId",
                    "type": "uint256"
                },
                {
                    "indexed": true,
                    "internalType": "address",
                    "name": "nftContract",
                    "type": "address"
                }
            ],
            "name": "FanClubNFTMinted",
            "type": "event"
        },
        {
            "anonymous": false,
            "inputs": [
                {
                    "indexed": true,
                    "internalType": "address",
                    "name": "previousOwner",
                    "type": "address"
                },
                {
                    "indexed": true,
                    "internalType": "address",
                    "name": "newOwner",
                    "type": "address"
                }
            ],
            "name": "OwnershipTransferred",
            "type": "event"
        },
        {
            "inputs": [
                {
                    "internalType": "address",
                    "name": "_artistAddress",
                    "type": "address"
                },
                {
                    "internalType": "string",
                    "name": "_artistName",
                    "type": "string"
                },
                {
                    "internalType": "string",
                    "name": "_imageURI",
                    "type": "string"
                },
                {
                    "internalType": "string",
                    "name": "_artCategory",
                    "type": "string"
                }
            ],
            "name": "addArtist",
            "outputs": [],
            "stateMutability": "nonpayable",
            "type": "function"
        },
        {
            "inputs": [
                {
                    "internalType": "address",
                    "name": "nftContract",
                    "type": "address"
                },
                {
                    "internalType": "uint256",
                    "name": "tokenId",
                    "type": "uint256"
                }
            ],
            "name": "buyNFTs",
            "outputs": [],
            "stateMutability": "payable",
            "type": "function"
        },
        {
            "inputs": [],
            "name": "getAllArtists",
            "outputs": [
                {
                    "components": [
                        {
                            "internalType": "address",
                            "name": "artistId",
                            "type": "address"
                        },
                        {
                            "internalType": "string",
                            "name": "artistName",
                            "type": "string"
                        },
                        {
                            "internalType": "string",
                            "name": "artistImageURI",
                            "type": "string"
                        },
                        {
                            "internalType": "string",
                            "name": "artCategory",
                            "type": "string"
                        }
                    ],
                    "internalType": "struct NFTMarketplace.ArtistAttributes[]",
                    "name": "",
                    "type": "tuple[]"
                }
            ],
            "stateMutability": "view",
            "type": "function"
        },
        {
            "inputs": [],
            "name": "getAllNFTs",
            "outputs": [
                {
                    "components": [
                        {
                            "internalType": "uint256",
                            "name": "tokenId",
                            "type": "uint256"
                        },
                        {
                            "internalType": "uint256",
                            "name": "tokenPrice",
                            "type": "uint256"
                        },
                        {
                            "internalType": "uint32",
                            "name": "soldCount",
                            "type": "uint32"
                        },
                        {
                            "internalType": "uint32",
                            "name": "totalCount",
                            "type": "uint32"
                        },
                        {
                            "internalType": "address payable",
                            "name": "currentOwner",
                            "type": "address"
                        },
                        {
                            "internalType": "address payable",
                            "name": "creator",
                            "type": "address"
                        }
                    ],
                    "internalType": "struct NFTMarketplace.TokenInfo[]",
                    "name": "",
                    "type": "tuple[]"
                }
            ],
            "stateMutability": "view",
            "type": "function"
        },
        {
            "inputs": [
                {
                    "internalType": "address",
                    "name": "_artistAddress",
                    "type": "address"
                }
            ],
            "name": "getArtistInfo",
            "outputs": [
                {
                    "components": [
                        {
                            "internalType": "address",
                            "name": "artistId",
                            "type": "address"
                        },
                        {
                            "internalType": "string",
                            "name": "artistName",
                            "type": "string"
                        },
                        {
                            "internalType": "string",
                            "name": "artistImageURI",
                            "type": "string"
                        },
                        {
                            "internalType": "string",
                            "name": "artCategory",
                            "type": "string"
                        }
                    ],
                    "internalType": "struct NFTMarketplace.ArtistAttributes",
                    "name": "",
                    "type": "tuple"
                }
            ],
            "stateMutability": "view",
            "type": "function"
        },
        {
            "inputs": [
                {
                    "internalType": "address",
                    "name": "_artistAddress",
                    "type": "address"
                }
            ],
            "name": "getNFTsOfArtist",
            "outputs": [
                {
                    "components": [
                        {
                            "internalType": "uint256",
                            "name": "tokenId",
                            "type": "uint256"
                        },
                        {
                            "internalType": "uint256",
                            "name": "tokenPrice",
                            "type": "uint256"
                        },
                        {
                            "internalType": "uint32",
                            "name": "soldCount",
                            "type": "uint32"
                        },
                        {
                            "internalType": "uint32",
                            "name": "totalCount",
                            "type": "uint32"
                        },
                        {
                            "internalType": "address payable",
                            "name": "currentOwner",
                            "type": "address"
                        },
                        {
                            "internalType": "address payable",
                            "name": "creator",
                            "type": "address"
                        }
                    ],
                    "internalType": "struct NFTMarketplace.TokenInfo[]",
                    "name": "",
                    "type": "tuple[]"
                }
            ],
            "stateMutability": "view",
            "type": "function"
        },
        {
            "inputs": [
                {
                    "internalType": "address",
                    "name": "nftContract",
                    "type": "address"
                },
                {
                    "internalType": "address payable",
                    "name": "artistAddress",
                    "type": "address"
                },
                {
                    "internalType": "uint256",
                    "name": "_tokenId",
                    "type": "uint256"
                },
                {
                    "internalType": "uint32",
                    "name": "_amount",
                    "type": "uint32"
                },
                {
                    "internalType": "uint256",
                    "name": "_tokenPrice",
                    "type": "uint256"
                }
            ],
            "name": "listNFT",
            "outputs": [],
            "stateMutability": "nonpayable",
            "type": "function"
        },
        {
            "inputs": [
                {
                    "internalType": "address",
                    "name": "",
                    "type": "address"
                },
                {
                    "internalType": "address",
                    "name": "",
                    "type": "address"
                },
                {
                    "internalType": "uint256[]",
                    "name": "",
                    "type": "uint256[]"
                },
                {
                    "internalType": "uint256[]",
                    "name": "",
                    "type": "uint256[]"
                },
                {
                    "internalType": "bytes",
                    "name": "",
                    "type": "bytes"
                }
            ],
            "name": "onERC1155BatchReceived",
            "outputs": [
                {
                    "internalType": "bytes4",
                    "name": "",
                    "type": "bytes4"
                }
            ],
            "stateMutability": "nonpayable",
            "type": "function"
        },
        {
            "inputs": [
                {
                    "internalType": "address",
                    "name": "",
                    "type": "address"
                },
                {
                    "internalType": "address",
                    "name": "",
                    "type": "address"
                },
                {
                    "internalType": "uint256",
                    "name": "",
                    "type": "uint256"
                },
                {
                    "internalType": "uint256",
                    "name": "",
                    "type": "uint256"
                },
                {
                    "internalType": "bytes",
                    "name": "",
                    "type": "bytes"
                }
            ],
            "name": "onERC1155Received",
            "outputs": [
                {
                    "internalType": "bytes4",
                    "name": "",
                    "type": "bytes4"
                }
            ],
            "stateMutability": "nonpayable",
            "type": "function"
        },
        {
            "inputs": [],
            "name": "owner",
            "outputs": [
                {
                    "internalType": "address",
                    "name": "",
                    "type": "address"
                }
            ],
            "stateMutability": "view",
            "type": "function"
        },
        {
            "inputs": [],
            "name": "renounceOwnership",
            "outputs": [],
            "stateMutability": "nonpayable",
            "type": "function"
        },
        {
            "inputs": [
                {
                    "internalType": "bytes4",
                    "name": "interfaceId",
                    "type": "bytes4"
                }
            ],
            "name": "supportsInterface",
            "outputs": [
                {
                    "internalType": "bool",
                    "name": "",
                    "type": "bool"
                }
            ],
            "stateMutability": "view",
            "type": "function"
        },
        {
            "inputs": [
                {
                    "internalType": "address",
                    "name": "newOwner",
                    "type": "address"
                }
            ],
            "name": "transferOwnership",
            "outputs": [],
            "stateMutability": "nonpayable",
            "type": "function"
        }
    ],
    "bytecode": "0x60806040523480156200001157600080fd5b506200001d3362000059565b600180819055506200005360405180606001604052806028815260200162001be460289139620000a960201b6200129e1760201c565b6200016e565b600080546001600160a01b038381166001600160a01b0319831681178455604051919092169283917f8be0079c531659141344cd1fd0a4f28419497f9722a3daafe3b4186f6b6457e09190a35050565b620000f481604051602401620000c0919062000118565b60408051601f198184030181529190526020810180516001600160e01b0390811663104c13eb60e21b17909152620000f716565b50565b80516a636f6e736f6c652e6c6f67602083016000808483855afa5050505050565b6000602080835283518082850152825b81811015620001465785810183015185820160400152820162000128565b81811115620001585783604083870101525b50601f01601f1916929092016040019392505050565b611a66806200017e6000396000f3fe6080604052600436106100c25760003560e01c80638da5cb5b1161007f578063e0391b0911610059578063e0391b091461022d578063f23a6e6114610242578063f2fde38b1461026e578063f803ace31461028e57600080fd5b80638da5cb5b14610193578063bc197c81146101bb578063c247620d1461020057600080fd5b806301ffc9a7146100c757806307490d2f146100fc578063077b828214610129578063391082291461014b5780633945a60b1461016b578063715018a61461017e575b600080fd5b3480156100d357600080fd5b506100e76100e2366004611731565b6102b0565b60405190151581526020015b60405180910390f35b34801561010857600080fd5b5061011c6101173660046114d9565b6102e7565b6040516100f39190611868565b34801561013557600080fd5b506101496101443660046114fc565b6104a7565b005b34801561015757600080fd5b5061014961016636600461166f565b61086b565b610149610179366004611706565b610a14565b34801561018a57600080fd5b50610149610c30565b34801561019f57600080fd5b506000546040516001600160a01b0390911681526020016100f3565b3480156101c757600080fd5b506101e76101d636600461155e565b63bc197c8160e01b95945050505050565b6040516001600160e01b031990911681526020016100f3565b34801561020c57600080fd5b5061022061021b3660046114d9565b610c96565b6040516100f3919061190d565b34801561023957600080fd5b5061011c610efd565b34801561024e57600080fd5b506101e761025d366004611608565b63f23a6e6160e01b95945050505050565b34801561027a57600080fd5b506101496102893660046114d9565b610fb1565b34801561029a57600080fd5b506102a361107c565b6040516100f39190611807565b60006001600160e01b03198216630271189760e51b14806102e157506301ffc9a760e01b6001600160e01b03198316145b92915050565b6001600160a01b03811660009081526005602052604081205460609190818167ffffffffffffffff81111561032c57634e487b7160e01b600052604160045260246000fd5b60405190808252806020026020018201604052801561038c57816020015b6040805160c08101825260008082526020808301829052928201819052606082018190526080820181905260a0820152825260001990920191018161034a5790505b50905060005b828163ffffffff16101561049e576001600160a01b0386166000908152600560205260409020805463ffffffff83169081106103de57634e487b7160e01b600052603260045260246000fd5b600091825260208083209091015480835260048252604092839020835160c08101855281548152600182015493810193909352600281015463ffffffff808216958501959095526401000000008104851660608501526001600160a01b03600160401b909104811660808501526003909101541660a083015284519096509091849190841690811061048057634e487b7160e01b600052603260045260246000fd5b60200260200101819052508080610496906119cb565b915050610392565b50949350505050565b600260015414156104ff5760405162461bcd60e51b815260206004820152601f60248201527f5265656e7472616e637947756172643a207265656e7472616e742063616c6c0060448201526064015b60405180910390fd5b60026001556001600160a01b0384166000908152600660205260409020546105695760405162461bcd60e51b815260206004820152601960248201527f4e6f20737563682041727469737420526567697374657265640000000000000060448201526064016104f6565b60056000856001600160a01b03166001600160a01b0316815260200190815260200160002083908060018154018082558091505060019003906000526020600020016000909190919091505560006040518060c00160405280858152602001838152602001600063ffffffff1681526020018463ffffffff168152602001306001600160a01b03168152602001866001600160a01b031681525090508060046000868152602001908152602001600020600082015181600001556020820151816001015560408201518160020160006101000a81548163ffffffff021916908363ffffffff16021790555060608201518160020160046101000a81548163ffffffff021916908363ffffffff16021790555060808201518160020160086101000a8154816001600160a01b0302191690836001600160a01b0316021790555060a08201518160030160006101000a8154816001600160a01b0302191690836001600160a01b031602179055509050506003819080600181540180825580915050600190039060005260206000209060040201600090919091909150600082015181600001556020820151816001015560408201518160020160006101000a81548163ffffffff021916908363ffffffff16021790555060608201518160020160046101000a81548163ffffffff021916908363ffffffff16021790555060808201518160020160086101000a8154816001600160a01b0302191690836001600160a01b0316021790555060a08201518160030160006101000a8154816001600160a01b0302191690836001600160a01b031602179055505050856001600160a01b031663f242432a333087876040518563ffffffff1660e01b815260040161082d94939291906001600160a01b039485168152929093166020830152604082015263ffffffff91909116606082015260a06080820181905260009082015260c00190565b600060405180830381600087803b15801561084757600080fd5b505af115801561085b573d6000803e3d6000fd5b5050600180555050505050505050565b6001600160a01b038416600090815260066020526040902054156108d15760405162461bcd60e51b815260206004820152601960248201527f41727469737420416c726561647920526567697374657265640000000000000060448201526064016104f6565b604080516080810182526001600160a01b0386811682526020808301878152938301869052606083018590526002805460018101825560009190915283517f405787fa12a823e0f2b7631cc41b3ba8828b3321ca811111fa75cd3aa3bb5ace600490920291820180546001600160a01b031916919094161783559351805193949293610984937f405787fa12a823e0f2b7631cc41b3ba8828b3321ca811111fa75cd3aa3bb5acf01929190910190611352565b50604082015180516109a0916002840191602090910190611352565b50606082015180516109bc916003840191602090910190611352565b50506002546001600160a01b038616600090815260066020908152604091829020929092558051808201909152600c81526b105c9d1a5cdd08185919195960a21b91810191909152610a0e915061129e565b50505050565b60026001541415610a675760405162461bcd60e51b815260206004820152601f60248201527f5265656e7472616e637947756172643a207265656e7472616e742063616c6c0060448201526064016104f6565b6002600190815560008281526004602052604090200154348114610af5576040805162461bcd60e51b81526020600482015260248101919091527f506c65617365207375626d6974207468652061736b696e67207072696365206960448201527f6e206f7264657220746f20636f6d706c6574652074686520707572636861736560648201526084016104f6565b6000828152600460205260408082206003015490516001600160a01b03909116913480156108fc02929091818181858888f19350505050158015610b3d573d6000803e3d6000fd5b50604051637921219560e11b8152306004820152336024820152604481018390526001606482015260a06084820152600060a48201526001600160a01b0384169063f242432a9060c401600060405180830381600087803b158015610ba157600080fd5b505af1158015610bb5573d6000803e3d6000fd5b50505060008381526004602052604081206002018054600160401b330268010000000000000000600160e01b031982168117835560019450919291610c0691859163ffffffff908116911617611951565b92506101000a81548163ffffffff021916908363ffffffff16021790555050600180819055505050565b6000546001600160a01b03163314610c8a5760405162461bcd60e51b815260206004820181905260248201527f4f776e61626c653a2063616c6c6572206973206e6f7420746865206f776e657260448201526064016104f6565b610c9460006112e1565b565b610cca604051806080016040528060006001600160a01b031681526020016060815260200160608152602001606081525090565b6001600160a01b038216600090815260066020526040902054600290610cf290600190611979565b81548110610d1057634e487b7160e01b600052603260045260246000fd5b6000918252602091829020604080516080810190915260049092020180546001600160a01b031682526001810180549293919291840191610d5090611990565b80601f0160208091040260200160405190810160405280929190818152602001828054610d7c90611990565b8015610dc95780601f10610d9e57610100808354040283529160200191610dc9565b820191906000526020600020905b815481529060010190602001808311610dac57829003601f168201915b50505050508152602001600282018054610de290611990565b80601f0160208091040260200160405190810160405280929190818152602001828054610e0e90611990565b8015610e5b5780601f10610e3057610100808354040283529160200191610e5b565b820191906000526020600020905b815481529060010190602001808311610e3e57829003601f168201915b50505050508152602001600382018054610e7490611990565b80601f0160208091040260200160405190810160405280929190818152602001828054610ea090611990565b8015610eed5780601f10610ec257610100808354040283529160200191610eed565b820191906000526020600020905b815481529060010190602001808311610ed057829003601f168201915b5050505050815250509050919050565b60606003805480602002602001604051908101604052809291908181526020016000905b82821015610fa85760008481526020908190206040805160c081018252600486029092018054835260018082015484860152600282015463ffffffff8082169486019490945264010000000081049093166060850152600160401b9092046001600160a01b0390811660808501526003909101541660a08301529083529092019101610f21565b50505050905090565b6000546001600160a01b0316331461100b5760405162461bcd60e51b815260206004820181905260248201527f4f776e61626c653a2063616c6c6572206973206e6f7420746865206f776e657260448201526064016104f6565b6001600160a01b0381166110705760405162461bcd60e51b815260206004820152602660248201527f4f776e61626c653a206e6577206f776e657220697320746865207a65726f206160448201526564647265737360d01b60648201526084016104f6565b611079816112e1565b50565b60606002805480602002602001604051908101604052809291908181526020016000905b82821015610fa857600084815260209081902060408051608081019091526004850290910180546001600160a01b0316825260018101805492939192918401916110e990611990565b80601f016020809104026020016040519081016040528092919081815260200182805461111590611990565b80156111625780601f1061113757610100808354040283529160200191611162565b820191906000526020600020905b81548152906001019060200180831161114557829003601f168201915b5050505050815260200160028201805461117b90611990565b80601f01602080910402602001604051908101604052809291908181526020018280546111a790611990565b80156111f45780601f106111c9576101008083540402835291602001916111f4565b820191906000526020600020905b8154815290600101906020018083116111d757829003601f168201915b5050505050815260200160038201805461120d90611990565b80601f016020809104026020016040519081016040528092919081815260200182805461123990611990565b80156112865780601f1061125b57610100808354040283529160200191611286565b820191906000526020600020905b81548152906001019060200180831161126957829003601f168201915b505050505081525050815260200190600101906110a0565b611079816040516024016112b291906118fa565b60408051601f198184030181529190526020810180516001600160e01b031663104c13eb60e21b179052611331565b600080546001600160a01b038381166001600160a01b0319831681178455604051919092169283917f8be0079c531659141344cd1fd0a4f28419497f9722a3daafe3b4186f6b6457e09190a35050565b80516a636f6e736f6c652e6c6f67602083016000808483855afa5050505050565b82805461135e90611990565b90600052602060002090601f01602090048101928261138057600085556113c6565b82601f1061139957805160ff19168380011785556113c6565b828001600101855582156113c6579182015b828111156113c65782518255916020019190600101906113ab565b506113d29291506113d6565b5090565b5b808211156113d257600081556001016113d7565b600082601f8301126113fb578081fd5b8135602067ffffffffffffffff82111561141757611417611a05565b8160051b611426828201611920565b838152828101908684018388018501891015611440578687fd5b8693505b85841015611462578035835260019390930192918401918401611444565b50979650505050505050565b600082601f83011261147e578081fd5b813567ffffffffffffffff81111561149857611498611a05565b6114ab601f8201601f1916602001611920565b8181528460208386010111156114bf578283fd5b816020850160208301379081016020019190915292915050565b6000602082840312156114ea578081fd5b81356114f581611a1b565b9392505050565b600080600080600060a08688031215611513578081fd5b853561151e81611a1b565b9450602086013561152e81611a1b565b935060408601359250606086013563ffffffff8116811461154d578182fd5b949793965091946080013592915050565b600080600080600060a08688031215611575578081fd5b853561158081611a1b565b9450602086013561159081611a1b565b9350604086013567ffffffffffffffff808211156115ac578283fd5b6115b889838a016113eb565b945060608801359150808211156115cd578283fd5b6115d989838a016113eb565b935060808801359150808211156115ee578283fd5b506115fb8882890161146e565b9150509295509295909350565b600080600080600060a0868803121561161f578081fd5b853561162a81611a1b565b9450602086013561163a81611a1b565b93506040860135925060608601359150608086013567ffffffffffffffff811115611663578182fd5b6115fb8882890161146e565b60008060008060808587031215611684578384fd5b843561168f81611a1b565b9350602085013567ffffffffffffffff808211156116ab578485fd5b6116b78883890161146e565b945060408701359150808211156116cc578384fd5b6116d88883890161146e565b935060608701359150808211156116ed578283fd5b506116fa8782880161146e565b91505092959194509250565b60008060408385031215611718578182fd5b823561172381611a1b565b946020939093013593505050565b600060208284031215611742578081fd5b81356001600160e01b0319811681146114f5578182fd5b60008151808452815b8181101561177e57602081850181015186830182015201611762565b8181111561178f5782602083870101525b50601f01601f19169290920160200192915050565b60018060a01b03815116825260006020820151608060208501526117cb6080850182611759565b9050604083015184820360408601526117e48282611759565b915050606083015184820360608601526117fe8282611759565b95945050505050565b6000602080830181845280855180835260408601915060408160051b8701019250838701855b8281101561185b57603f198886030184526118498583516117a4565b9450928501929085019060010161182d565b5092979650505050505050565b602080825282518282018190526000919060409081850190868401855b828110156118ed5781518051855286810151878601528581015163ffffffff90811687870152606080830151909116908601526080808201516001600160a01b039081169187019190915260a091820151169085015260c09093019290850190600101611885565b5091979650505050505050565b6020815260006114f56020830184611759565b6020815260006114f560208301846117a4565b604051601f8201601f1916810167ffffffffffffffff8111828210171561194957611949611a05565b604052919050565b600063ffffffff808316818516808303821115611970576119706119ef565b01949350505050565b60008282101561198b5761198b6119ef565b500390565b600181811c908216806119a457607f821691505b602082108114156119c557634e487b7160e01b600052602260045260246000fd5b50919050565b600063ffffffff808316818114156119e5576119e56119ef565b6001019392505050565b634e487b7160e01b600052601160045260246000fd5b634e487b7160e01b600052604160045260246000fd5b6001600160a01b038116811461107957600080fdfea2646970667358221220fe8830226a8fa023588294078f2b0c89d011f09d3b70ae4613ea6a56bec04f0864736f6c634300080400335468697320697320746865204e4654204d61726b6574706c61636520436f6e7472616374205e5f5e",
    "linkReferences": {},
    "deployedLinkReferences": {}
}