{
  "_format": "hh-sol-artifact-1",
  "contractName": "NFTMarketplace",
  "sourceName": "contracts/NFTMarketplace.sol",
  "abi": [
    {
      "inputs": [],
      "stateMutability": "nonpayable",
      "type": "constructor"
    },
    {
      "anonymous": false,
      "inputs": [
        {
          "indexed": true,
          "internalType": "uint256",
          "name": "tokenId",
          "type": "uint256"
        },
        {
          "indexed": true,
          "internalType": "address",
          "name": "nftContract",
          "type": "address"
        }
      ],
      "name": "FanClubNFTMinted",
      "type": "event"
    },
    {
      "inputs": [
        {
          "internalType": "address",
          "name": "_artistAddress",
          "type": "address"
        },
        {
          "internalType": "string",
          "name": "_artistName",
          "type": "string"
        },
        {
          "internalType": "string",
          "name": "_imageURI",
          "type": "string"
        },
        {
          "internalType": "string",
          "name": "_artCategory",
          "type": "string"
        }
      ],
      "name": "addArtist",
      "outputs": [],
      "stateMutability": "nonpayable",
      "type": "function"
    },
    {
      "inputs": [
        {
          "internalType": "address",
          "name": "nftContract",
          "type": "address"
        },
        {
          "internalType": "uint256",
          "name": "tokenId",
          "type": "uint256"
        }
      ],
      "name": "buyNFTs",
      "outputs": [],
      "stateMutability": "payable",
      "type": "function"
    },
    {
      "inputs": [],
      "name": "getAllArtists",
      "outputs": [
        {
          "components": [
            {
              "internalType": "address",
              "name": "artistId",
              "type": "address"
            },
            {
              "internalType": "string",
              "name": "artistName",
              "type": "string"
            },
            {
              "internalType": "string",
              "name": "artistImageURI",
              "type": "string"
            },
            {
              "internalType": "string",
              "name": "artCategory",
              "type": "string"
            }
          ],
          "internalType": "struct NFTMarketplace.ArtistAttributes[]",
          "name": "",
          "type": "tuple[]"
        }
      ],
      "stateMutability": "view",
      "type": "function"
    },
    {
      "inputs": [],
      "name": "getAllNFTs",
      "outputs": [
        {
          "components": [
            {
              "internalType": "uint256",
              "name": "tokenId",
              "type": "uint256"
            },
            {
              "internalType": "uint256",
              "name": "tokenPrice",
              "type": "uint256"
            },
            {
              "internalType": "uint32",
              "name": "soldCount",
              "type": "uint32"
            },
            {
              "internalType": "uint32",
              "name": "totalCount",
              "type": "uint32"
            },
            {
              "internalType": "address payable",
              "name": "currentOwner",
              "type": "address"
            },
            {
              "internalType": "address payable",
              "name": "creator",
              "type": "address"
            },
            {
              "internalType": "string",
              "name": "tokenName",
              "type": "string"
            },
            {
              "internalType": "string",
              "name": "tokenDescription",
              "type": "string"
            },
            {
              "internalType": "string",
              "name": "tokenImage",
              "type": "string"
            },
            {
              "internalType": "string",
              "name": "tokenType",
              "type": "string"
            }
          ],
          "internalType": "struct NFTMarketplace.TokenInfo[]",
          "name": "",
          "type": "tuple[]"
        }
      ],
      "stateMutability": "view",
      "type": "function"
    },
    {
      "inputs": [
        {
          "internalType": "address",
          "name": "_artistAddress",
          "type": "address"
        }
      ],
      "name": "getArtistInfo",
      "outputs": [
        {
          "components": [
            {
              "internalType": "address",
              "name": "artistId",
              "type": "address"
            },
            {
              "internalType": "string",
              "name": "artistName",
              "type": "string"
            },
            {
              "internalType": "string",
              "name": "artistImageURI",
              "type": "string"
            },
            {
              "internalType": "string",
              "name": "artCategory",
              "type": "string"
            }
          ],
          "internalType": "struct NFTMarketplace.ArtistAttributes",
          "name": "",
          "type": "tuple"
        }
      ],
      "stateMutability": "view",
      "type": "function"
    },
    {
      "inputs": [
        {
          "internalType": "address",
          "name": "_artistAddress",
          "type": "address"
        }
      ],
      "name": "getNFTsOfArtist",
      "outputs": [
        {
          "components": [
            {
              "internalType": "uint256",
              "name": "tokenId",
              "type": "uint256"
            },
            {
              "internalType": "uint256",
              "name": "tokenPrice",
              "type": "uint256"
            },
            {
              "internalType": "uint32",
              "name": "soldCount",
              "type": "uint32"
            },
            {
              "internalType": "uint32",
              "name": "totalCount",
              "type": "uint32"
            },
            {
              "internalType": "address payable",
              "name": "currentOwner",
              "type": "address"
            },
            {
              "internalType": "address payable",
              "name": "creator",
              "type": "address"
            },
            {
              "internalType": "string",
              "name": "tokenName",
              "type": "string"
            },
            {
              "internalType": "string",
              "name": "tokenDescription",
              "type": "string"
            },
            {
              "internalType": "string",
              "name": "tokenImage",
              "type": "string"
            },
            {
              "internalType": "string",
              "name": "tokenType",
              "type": "string"
            }
          ],
          "internalType": "struct NFTMarketplace.TokenInfo[]",
          "name": "",
          "type": "tuple[]"
        }
      ],
      "stateMutability": "view",
      "type": "function"
    },
    {
      "inputs": [
        {
          "internalType": "address",
          "name": "nftContract",
          "type": "address"
        },
        {
          "internalType": "address payable",
          "name": "artistAddress",
          "type": "address"
        },
        {
          "internalType": "uint256",
          "name": "_tokenId",
          "type": "uint256"
        },
        {
          "internalType": "uint32",
          "name": "_amount",
          "type": "uint32"
        },
        {
          "internalType": "uint256",
          "name": "_tokenPrice",
          "type": "uint256"
        },
        {
          "internalType": "string",
          "name": "_tokenName",
          "type": "string"
        },
        {
          "internalType": "string",
          "name": "_tokenDescription",
          "type": "string"
        },
        {
          "internalType": "string",
          "name": "_tokenImage",
          "type": "string"
        },
        {
          "internalType": "string",
          "name": "_tokenType",
          "type": "string"
        }
      ],
      "name": "listNFT",
      "outputs": [],
      "stateMutability": "nonpayable",
      "type": "function"
    },
    {
      "inputs": [
        {
          "internalType": "address",
          "name": "",
          "type": "address"
        },
        {
          "internalType": "address",
          "name": "",
          "type": "address"
        },
        {
          "internalType": "uint256[]",
          "name": "",
          "type": "uint256[]"
        },
        {
          "internalType": "uint256[]",
          "name": "",
          "type": "uint256[]"
        },
        {
          "internalType": "bytes",
          "name": "",
          "type": "bytes"
        }
      ],
      "name": "onERC1155BatchReceived",
      "outputs": [
        {
          "internalType": "bytes4",
          "name": "",
          "type": "bytes4"
        }
      ],
      "stateMutability": "nonpayable",
      "type": "function"
    },
    {
      "inputs": [
        {
          "internalType": "address",
          "name": "",
          "type": "address"
        },
        {
          "internalType": "address",
          "name": "",
          "type": "address"
        },
        {
          "internalType": "uint256",
          "name": "",
          "type": "uint256"
        },
        {
          "internalType": "uint256",
          "name": "",
          "type": "uint256"
        },
        {
          "internalType": "bytes",
          "name": "",
          "type": "bytes"
        }
      ],
      "name": "onERC1155Received",
      "outputs": [
        {
          "internalType": "bytes4",
          "name": "",
          "type": "bytes4"
        }
      ],
      "stateMutability": "nonpayable",
      "type": "function"
    },
    {
      "inputs": [
        {
          "internalType": "bytes4",
          "name": "interfaceId",
          "type": "bytes4"
        }
      ],
      "name": "supportsInterface",
      "outputs": [
        {
          "internalType": "bool",
          "name": "",
          "type": "bool"
        }
      ],
      "stateMutability": "view",
      "type": "function"
    }
  ],
  "bytecode": "0x60806040523480156200001157600080fd5b50600160008190555062000049604051806060016040528060288152602001620020eb602891396200004f60201b620017071760201c565b62000114565b6200009a81604051602401620000669190620000be565b60408051601f198184030181529190526020810180516001600160e01b0390811663104c13eb60e21b179091526200009d16565b50565b80516a636f6e736f6c652e6c6f67602083016000808483855afa5050505050565b6000602080835283518082850152825b81811015620000ec57858101830151858201604001528201620000ce565b81811115620000fe5783604083870101525b50601f01601f1916929092016040019392505050565b611fc780620001246000396000f3fe6080604052600436106100915760003560e01c8063bc197c8111610059578063bc197c811461014d578063c247620d14610192578063e0391b09146101bf578063f23a6e61146101d4578063f803ace31461020057600080fd5b806301ffc9a71461009657806307490d2f146100cb57806312017ec4146100f8578063391082291461011a5780633945a60b1461013a575b600080fd5b3480156100a257600080fd5b506100b66100b1366004611bfd565b610222565b60405190151581526020015b60405180910390f35b3480156100d757600080fd5b506100eb6100e6366004611919565b610259565b6040516100c29190611d34565b34801561010457600080fd5b5061011861011336600461193c565b6106b0565b005b34801561012657600080fd5b50610118610135366004611b3b565b610bb6565b610118610148366004611bd2565b610d5e565b34801561015957600080fd5b50610179610168366004611a2a565b63bc197c8160e01b95945050505050565b6040516001600160e01b031990911681526020016100c2565b34801561019e57600080fd5b506101b26101ad366004611919565b610f78565b6040516100c29190611e6e565b3480156101cb57600080fd5b506100eb6111de565b3480156101e057600080fd5b506101796101ef366004611ad4565b63f23a6e6160e01b95945050505050565b34801561020c57600080fd5b506102156114e5565b6040516100c29190611cd3565b60006001600160e01b03198216630271189760e51b148061025357506301ffc9a760e01b6001600160e01b03198316145b92915050565b6001600160a01b03811660009081526004602052604081205460609190818167ffffffffffffffff81111561029e57634e487b7160e01b600052604160045260246000fd5b60405190808252806020026020018201604052801561034357816020015b6103306040518061014001604052806000815260200160008152602001600063ffffffff168152602001600063ffffffff16815260200160006001600160a01b0316815260200160006001600160a01b03168152602001606081526020016060815260200160608152602001606081525090565b8152602001906001900390816102bc5790505b50905060005b828163ffffffff1610156106a7576001600160a01b0386166000908152600460205260409020805463ffffffff831690811061039557634e487b7160e01b600052603260045260246000fd5b6000918252602080832090910154808352600380835260409384902084516101408101865281548152600182015494810194909452600281015463ffffffff80821696860196909652640100000000810490951660608501526001600160a01b03600160401b909504851660808501529081015490931660a083015260048301805491975091929160c084019161042b90611ef1565b80601f016020809104026020016040519081016040528092919081815260200182805461045790611ef1565b80156104a45780601f10610479576101008083540402835291602001916104a4565b820191906000526020600020905b81548152906001019060200180831161048757829003601f168201915b505050505081526020016005820180546104bd90611ef1565b80601f01602080910402602001604051908101604052809291908181526020018280546104e990611ef1565b80156105365780601f1061050b57610100808354040283529160200191610536565b820191906000526020600020905b81548152906001019060200180831161051957829003601f168201915b5050505050815260200160068201805461054f90611ef1565b80601f016020809104026020016040519081016040528092919081815260200182805461057b90611ef1565b80156105c85780601f1061059d576101008083540402835291602001916105c8565b820191906000526020600020905b8154815290600101906020018083116105ab57829003601f168201915b505050505081526020016007820180546105e190611ef1565b80601f016020809104026020016040519081016040528092919081815260200182805461060d90611ef1565b801561065a5780601f1061062f5761010080835404028352916020019161065a565b820191906000526020600020905b81548152906001019060200180831161063d57829003601f168201915b505050505081525050828263ffffffff168151811061068957634e487b7160e01b600052603260045260246000fd5b6020026020010181905250808061069f90611f2c565b915050610349565b50949350505050565b600260005414156107085760405162461bcd60e51b815260206004820152601f60248201527f5265656e7472616e637947756172643a207265656e7472616e742063616c6c0060448201526064015b60405180910390fd5b600260009081556001600160a01b0389168152600560205260409020546107715760405162461bcd60e51b815260206004820152601960248201527f4e6f20737563682041727469737420526567697374657265640000000000000060448201526064016106ff565b60046000896001600160a01b03166001600160a01b031681526020019081526020016000208790806001815401808255809150506001900390600052602060002001600090919091909150556000604051806101400160405280898152602001878152602001600063ffffffff1681526020018863ffffffff168152602001306001600160a01b031681526020018a6001600160a01b0316815260200186815260200185815260200184815260200183815250905080600360008a8152602001908152602001600020600082015181600001556020820151816001015560408201518160020160006101000a81548163ffffffff021916908363ffffffff16021790555060608201518160020160046101000a81548163ffffffff021916908363ffffffff16021790555060808201518160020160086101000a8154816001600160a01b0302191690836001600160a01b0316021790555060a08201518160030160006101000a8154816001600160a01b0302191690836001600160a01b0316021790555060c082015181600401908051906020019061091292919061176e565b5060e0820151805161092e91600584019160209091019061176e565b50610100820151805161094b91600684019160209091019061176e565b50610120820151805161096891600784019160209091019061176e565b505060028054600181018255600091909152825160089091027f405787fa12a823e0f2b7631cc41b3ba8828b3321ca811111fa75cd3aa3bb5ace81019182556020808501517f405787fa12a823e0f2b7631cc41b3ba8828b3321ca811111fa75cd3aa3bb5acf83015560408501517f405787fa12a823e0f2b7631cc41b3ba8828b3321ca811111fa75cd3aa3bb5ad083018054606088015160808901516001600160a01b03908116600160401b02600160401b600160e01b031963ffffffff9384166401000000000267ffffffffffffffff199095169390961692909217929092179390931692909217905560a08601517f405787fa12a823e0f2b7631cc41b3ba8828b3321ca811111fa75cd3aa3bb5ad184018054919092166001600160a01b031990911617905560c08501518051869550610acc937f405787fa12a823e0f2b7631cc41b3ba8828b3321ca811111fa75cd3aa3bb5ad20192919091019061176e565b5060e08201518051610ae891600584019160209091019061176e565b506101008201518051610b0591600684019160209091019061176e565b506101208201518051610b2291600784019160209091019061176e565b5050604051637921219560e11b8152336004820152306024820152604481018a905263ffffffff8916606482015260a06084820152600060a48201526001600160a01b038c16915063f242432a9060c401600060405180830381600087803b158015610b8d57600080fd5b505af1158015610ba1573d6000803e3d6000fd5b50506001600055505050505050505050505050565b6001600160a01b03841660009081526005602052604090205415610c1c5760405162461bcd60e51b815260206004820152601960248201527f41727469737420416c726561647920526567697374657265640000000000000060448201526064016106ff565b604080516080810182526001600160a01b03868116825260208083018781529383018690526060830185905260018054808201825560009190915283517fb10e2d527612073b26eecdfd717e6a320cf44b4afac2b0732d9fcbe2b7fa0cf6600490920291820180546001600160a01b031916919094161783559351805193949293610cce937fb10e2d527612073b26eecdfd717e6a320cf44b4afac2b0732d9fcbe2b7fa0cf70192919091019061176e565b5060408201518051610cea91600284019160209091019061176e565b5060608201518051610d0691600384019160209091019061176e565b50506001546001600160a01b038616600090815260056020908152604091829020929092558051808201909152600c81526b105c9d1a5cdd08185919195960a21b91810191909152610d589150611707565b50505050565b60026000541415610db15760405162461bcd60e51b815260206004820152601f60248201527f5265656e7472616e637947756172643a207265656e7472616e742063616c6c0060448201526064016106ff565b6002600090815581815260036020526040902060010154348114610e3f576040805162461bcd60e51b81526020600482015260248101919091527f506c65617365207375626d6974207468652061736b696e67207072696365206960448201527f6e206f7264657220746f20636f6d706c6574652074686520707572636861736560648201526084016106ff565b60008281526003602081905260408083209091015490516001600160a01b03909116913480156108fc02929091818181858888f19350505050158015610e89573d6000803e3d6000fd5b50604051637921219560e11b8152306004820152336024820152604481018390526001606482015260a06084820152600060a48201526001600160a01b0384169063f242432a9060c401600060405180830381600087803b158015610eed57600080fd5b505af1158015610f01573d6000803e3d6000fd5b50505060008381526003602052604081206002018054600160401b3302600160401b600160e01b031982168117835560019450919291610f4d91859163ffffffff908116911617611eb2565b92506101000a81548163ffffffff021916908363ffffffff1602179055505060016000819055505050565b610fac604051806080016040528060006001600160a01b031681526020016060815260200160608152602001606081525090565b6001600160a01b038216600090815260056020526040902054600190610fd3908290611eda565b81548110610ff157634e487b7160e01b600052603260045260246000fd5b6000918252602091829020604080516080810190915260049092020180546001600160a01b03168252600181018054929391929184019161103190611ef1565b80601f016020809104026020016040519081016040528092919081815260200182805461105d90611ef1565b80156110aa5780601f1061107f576101008083540402835291602001916110aa565b820191906000526020600020905b81548152906001019060200180831161108d57829003601f168201915b505050505081526020016002820180546110c390611ef1565b80601f01602080910402602001604051908101604052809291908181526020018280546110ef90611ef1565b801561113c5780601f106111115761010080835404028352916020019161113c565b820191906000526020600020905b81548152906001019060200180831161111f57829003601f168201915b5050505050815260200160038201805461115590611ef1565b80601f016020809104026020016040519081016040528092919081815260200182805461118190611ef1565b80156111ce5780601f106111a3576101008083540402835291602001916111ce565b820191906000526020600020905b8154815290600101906020018083116111b157829003601f168201915b5050505050815250509050919050565b60606002805480602002602001604051908101604052809291908181526020016000905b828210156114dc57600084815260209081902060408051610140810182526008860290920180548352600181015493830193909352600283015463ffffffff80821692840192909252640100000000810490911660608301526001600160a01b03600160401b9091048116608083015260038301541660a082015260048201805491929160c08401919061129590611ef1565b80601f01602080910402602001604051908101604052809291908181526020018280546112c190611ef1565b801561130e5780601f106112e35761010080835404028352916020019161130e565b820191906000526020600020905b8154815290600101906020018083116112f157829003601f168201915b5050505050815260200160058201805461132790611ef1565b80601f016020809104026020016040519081016040528092919081815260200182805461135390611ef1565b80156113a05780601f10611375576101008083540402835291602001916113a0565b820191906000526020600020905b81548152906001019060200180831161138357829003601f168201915b505050505081526020016006820180546113b990611ef1565b80601f01602080910402602001604051908101604052809291908181526020018280546113e590611ef1565b80156114325780601f1061140757610100808354040283529160200191611432565b820191906000526020600020905b81548152906001019060200180831161141557829003601f168201915b5050505050815260200160078201805461144b90611ef1565b80601f016020809104026020016040519081016040528092919081815260200182805461147790611ef1565b80156114c45780601f10611499576101008083540402835291602001916114c4565b820191906000526020600020905b8154815290600101906020018083116114a757829003601f168201915b50505050508152505081526020019060010190611202565b50505050905090565b60606001805480602002602001604051908101604052809291908181526020016000905b828210156114dc57600084815260209081902060408051608081019091526004850290910180546001600160a01b03168252600181018054929391929184019161155290611ef1565b80601f016020809104026020016040519081016040528092919081815260200182805461157e90611ef1565b80156115cb5780601f106115a0576101008083540402835291602001916115cb565b820191906000526020600020905b8154815290600101906020018083116115ae57829003601f168201915b505050505081526020016002820180546115e490611ef1565b80601f016020809104026020016040519081016040528092919081815260200182805461161090611ef1565b801561165d5780601f106116325761010080835404028352916020019161165d565b820191906000526020600020905b81548152906001019060200180831161164057829003601f168201915b5050505050815260200160038201805461167690611ef1565b80601f01602080910402602001604051908101604052809291908181526020018280546116a290611ef1565b80156116ef5780601f106116c4576101008083540402835291602001916116ef565b820191906000526020600020905b8154815290600101906020018083116116d257829003601f168201915b50505050508152505081526020019060010190611509565b61174a8160405160240161171b9190611e5b565b60408051601f198184030181529190526020810180516001600160e01b031663104c13eb60e21b17905261174d565b50565b80516a636f6e736f6c652e6c6f67602083016000808483855afa5050505050565b82805461177a90611ef1565b90600052602060002090601f01602090048101928261179c57600085556117e2565b82601f106117b557805160ff19168380011785556117e2565b828001600101855582156117e2579182015b828111156117e25782518255916020019190600101906117c7565b506117ee9291506117f2565b5090565b5b808211156117ee57600081556001016117f3565b803561181281611f7c565b919050565b600082601f830112611827578081fd5b8135602067ffffffffffffffff82111561184357611843611f66565b8160051b611852828201611e81565b83815282810190868401838801850189101561186c578687fd5b8693505b8584101561188e578035835260019390930192918401918401611870565b50979650505050505050565b600082601f8301126118aa578081fd5b813567ffffffffffffffff8111156118c4576118c4611f66565b6118d7601f8201601f1916602001611e81565b8181528460208386010111156118eb578283fd5b816020850160208301379081016020019190915292915050565b803563ffffffff8116811461181257600080fd5b60006020828403121561192a578081fd5b813561193581611f7c565b9392505050565b60008060008060008060008060006101208a8c03121561195a578485fd5b6119638a611807565b985061197160208b01611807565b975060408a0135965061198660608b01611905565b955060808a0135945060a08a013567ffffffffffffffff808211156119a9578586fd5b6119b58d838e0161189a565b955060c08c01359150808211156119ca578485fd5b6119d68d838e0161189a565b945060e08c01359150808211156119eb578384fd5b6119f78d838e0161189a565b93506101008c0135915080821115611a0d578283fd5b50611a1a8c828d0161189a565b9150509295985092959850929598565b600080600080600060a08688031215611a41578081fd5b8535611a4c81611f7c565b94506020860135611a5c81611f7c565b9350604086013567ffffffffffffffff80821115611a78578283fd5b611a8489838a01611817565b94506060880135915080821115611a99578283fd5b611aa589838a01611817565b93506080880135915080821115611aba578283fd5b50611ac78882890161189a565b9150509295509295909350565b600080600080600060a08688031215611aeb578081fd5b8535611af681611f7c565b94506020860135611b0681611f7c565b93506040860135925060608601359150608086013567ffffffffffffffff811115611b2f578182fd5b611ac78882890161189a565b60008060008060808587031215611b50578384fd5b8435611b5b81611f7c565b9350602085013567ffffffffffffffff80821115611b77578485fd5b611b838883890161189a565b94506040870135915080821115611b98578384fd5b611ba48883890161189a565b93506060870135915080821115611bb9578283fd5b50611bc68782880161189a565b91505092959194509250565b60008060408385031215611be4578182fd5b8235611bef81611f7c565b946020939093013593505050565b600060208284031215611c0e578081fd5b81356001600160e01b031981168114611935578182fd5b60008151808452815b81811015611c4a57602081850181015186830182015201611c2e565b81811115611c5b5782602083870101525b50601f01601f19169290920160200192915050565b60018060a01b0381511682526000602082015160806020850152611c976080850182611c25565b905060408301518482036040860152611cb08282611c25565b91505060608301518482036060860152611cca8282611c25565b95945050505050565b6000602080830181845280855180835260408601915060408160051b8701019250838701855b82811015611d2757603f19888603018452611d15858351611c70565b94509285019290850190600101611cf9565b5092979650505050505050565b60006020808301818452808551808352604092508286019150828160051b870101848801865b83811015611e4d57888303603f1901855281518051845287810151888501528681015163ffffffff811688860152610140905060608281015163ffffffff81168783015250506080828101516001600160a01b03811687830152505060a0828101516001600160a01b03811687830152505060c0808301518282880152611de383880182611c25565b9250505060e08083015186830382880152611dfe8382611c25565b925050506101008083015186830382880152611e1a8382611c25565b925050506101208083015192508582038187015250611e398183611c25565b968901969450505090860190600101611d5a565b509098975050505050505050565b6020815260006119356020830184611c25565b6020815260006119356020830184611c70565b604051601f8201601f1916810167ffffffffffffffff81118282101715611eaa57611eaa611f66565b604052919050565b600063ffffffff808316818516808303821115611ed157611ed1611f50565b01949350505050565b600082821015611eec57611eec611f50565b500390565b600181811c90821680611f0557607f821691505b60208210811415611f2657634e487b7160e01b600052602260045260246000fd5b50919050565b600063ffffffff80831681811415611f4657611f46611f50565b6001019392505050565b634e487b7160e01b600052601160045260246000fd5b634e487b7160e01b600052604160045260246000fd5b6001600160a01b038116811461174a57600080fdfea26469706673582212209aaffec5f2c8bfe8e9a80911ca2ec4d50f48e94bbe4eb25d2f3f5bf07d0a8d0e64736f6c634300080400335468697320697320746865204e4654204d61726b6574706c61636520436f6e7472616374205e5f5e",
  "linkReferences": {},
  "deployedLinkReferences": {}
}