{
  "_format": "hh-sol-artifact-1",
  "contractName": "NFTMarketplace",
  "sourceName": "contracts/NFTMarketplace.sol",
  "abi": [
    {
      "inputs": [],
      "stateMutability": "nonpayable",
      "type": "constructor"
    },
    {
      "anonymous": false,
      "inputs": [
        {
          "indexed": true,
          "internalType": "uint256",
          "name": "tokenId",
          "type": "uint256"
        },
        {
          "indexed": true,
          "internalType": "address",
          "name": "buyer",
          "type": "address"
        }
      ],
      "name": "NFTBought",
      "type": "event"
    },
    {
      "anonymous": false,
      "inputs": [
        {
          "indexed": true,
          "internalType": "uint256",
          "name": "tokenId",
          "type": "uint256"
        },
        {
          "indexed": true,
          "internalType": "address",
          "name": "nftContract",
          "type": "address"
        }
      ],
      "name": "NFTListed",
      "type": "event"
    },
    {
      "inputs": [
        {
          "internalType": "address",
          "name": "_artistAddress",
          "type": "address"
        },
        {
          "internalType": "string",
          "name": "_artistName",
          "type": "string"
        },
        {
          "internalType": "string",
          "name": "_imageURI",
          "type": "string"
        },
        {
          "internalType": "string",
          "name": "_artCategory",
          "type": "string"
        }
      ],
      "name": "addArtist",
      "outputs": [],
      "stateMutability": "nonpayable",
      "type": "function"
    },
    {
      "inputs": [
        {
          "internalType": "address",
          "name": "nftContract",
          "type": "address"
        },
        {
          "internalType": "uint256",
          "name": "tokenId",
          "type": "uint256"
        }
      ],
      "name": "buyNFTs",
      "outputs": [],
      "stateMutability": "payable",
      "type": "function"
    },
    {
      "inputs": [],
      "name": "getAllArtists",
      "outputs": [
        {
          "components": [
            {
              "internalType": "address",
              "name": "artistId",
              "type": "address"
            },
            {
              "internalType": "string",
              "name": "artistName",
              "type": "string"
            },
            {
              "internalType": "string",
              "name": "artistImageURI",
              "type": "string"
            },
            {
              "internalType": "string",
              "name": "artCategory",
              "type": "string"
            }
          ],
          "internalType": "struct NFTMarketplace.ArtistAttributes[]",
          "name": "",
          "type": "tuple[]"
        }
      ],
      "stateMutability": "view",
      "type": "function"
    },
    {
      "inputs": [],
      "name": "getAllNFTs",
      "outputs": [
        {
          "components": [
            {
              "internalType": "uint256",
              "name": "tokenId",
              "type": "uint256"
            },
            {
              "internalType": "uint256",
              "name": "tokenPrice",
              "type": "uint256"
            },
            {
              "internalType": "uint32",
              "name": "soldCount",
              "type": "uint32"
            },
            {
              "internalType": "uint32",
              "name": "totalCount",
              "type": "uint32"
            },
            {
              "internalType": "address payable",
              "name": "currentOwner",
              "type": "address"
            },
            {
              "internalType": "address payable",
              "name": "creator",
              "type": "address"
            },
            {
              "internalType": "string",
              "name": "tokenName",
              "type": "string"
            },
            {
              "internalType": "string",
              "name": "tokenDescription",
              "type": "string"
            },
            {
              "internalType": "string",
              "name": "tokenImage",
              "type": "string"
            },
            {
              "internalType": "string",
              "name": "tokenType",
              "type": "string"
            }
          ],
          "internalType": "struct NFTMarketplace.TokenInfo[]",
          "name": "",
          "type": "tuple[]"
        }
      ],
      "stateMutability": "view",
      "type": "function"
    },
    {
      "inputs": [
        {
          "internalType": "address",
          "name": "_artistAddress",
          "type": "address"
        }
      ],
      "name": "getArtistInfo",
      "outputs": [
        {
          "components": [
            {
              "internalType": "address",
              "name": "artistId",
              "type": "address"
            },
            {
              "internalType": "string",
              "name": "artistName",
              "type": "string"
            },
            {
              "internalType": "string",
              "name": "artistImageURI",
              "type": "string"
            },
            {
              "internalType": "string",
              "name": "artCategory",
              "type": "string"
            }
          ],
          "internalType": "struct NFTMarketplace.ArtistAttributes",
          "name": "",
          "type": "tuple"
        }
      ],
      "stateMutability": "view",
      "type": "function"
    },
    {
      "inputs": [
        {
          "internalType": "address",
          "name": "_artistAddress",
          "type": "address"
        }
      ],
      "name": "getNFTsOfArtist",
      "outputs": [
        {
          "components": [
            {
              "internalType": "uint256",
              "name": "tokenId",
              "type": "uint256"
            },
            {
              "internalType": "uint256",
              "name": "tokenPrice",
              "type": "uint256"
            },
            {
              "internalType": "uint32",
              "name": "soldCount",
              "type": "uint32"
            },
            {
              "internalType": "uint32",
              "name": "totalCount",
              "type": "uint32"
            },
            {
              "internalType": "address payable",
              "name": "currentOwner",
              "type": "address"
            },
            {
              "internalType": "address payable",
              "name": "creator",
              "type": "address"
            },
            {
              "internalType": "string",
              "name": "tokenName",
              "type": "string"
            },
            {
              "internalType": "string",
              "name": "tokenDescription",
              "type": "string"
            },
            {
              "internalType": "string",
              "name": "tokenImage",
              "type": "string"
            },
            {
              "internalType": "string",
              "name": "tokenType",
              "type": "string"
            }
          ],
          "internalType": "struct NFTMarketplace.TokenInfo[]",
          "name": "",
          "type": "tuple[]"
        }
      ],
      "stateMutability": "view",
      "type": "function"
    },
    {
      "inputs": [
        {
          "internalType": "address",
          "name": "nftContract",
          "type": "address"
        },
        {
          "internalType": "address payable",
          "name": "artistAddress",
          "type": "address"
        },
        {
          "internalType": "uint256",
          "name": "_tokenId",
          "type": "uint256"
        },
        {
          "internalType": "uint32",
          "name": "_amount",
          "type": "uint32"
        },
        {
          "internalType": "uint256",
          "name": "_tokenPrice",
          "type": "uint256"
        },
        {
          "internalType": "string",
          "name": "_tokenName",
          "type": "string"
        },
        {
          "internalType": "string",
          "name": "_tokenDescription",
          "type": "string"
        },
        {
          "internalType": "string",
          "name": "_tokenImage",
          "type": "string"
        },
        {
          "internalType": "string",
          "name": "_tokenType",
          "type": "string"
        }
      ],
      "name": "listNFT",
      "outputs": [],
      "stateMutability": "nonpayable",
      "type": "function"
    },
    {
      "inputs": [
        {
          "internalType": "address",
          "name": "",
          "type": "address"
        },
        {
          "internalType": "address",
          "name": "",
          "type": "address"
        },
        {
          "internalType": "uint256[]",
          "name": "",
          "type": "uint256[]"
        },
        {
          "internalType": "uint256[]",
          "name": "",
          "type": "uint256[]"
        },
        {
          "internalType": "bytes",
          "name": "",
          "type": "bytes"
        }
      ],
      "name": "onERC1155BatchReceived",
      "outputs": [
        {
          "internalType": "bytes4",
          "name": "",
          "type": "bytes4"
        }
      ],
      "stateMutability": "nonpayable",
      "type": "function"
    },
    {
      "inputs": [
        {
          "internalType": "address",
          "name": "",
          "type": "address"
        },
        {
          "internalType": "address",
          "name": "",
          "type": "address"
        },
        {
          "internalType": "uint256",
          "name": "",
          "type": "uint256"
        },
        {
          "internalType": "uint256",
          "name": "",
          "type": "uint256"
        },
        {
          "internalType": "bytes",
          "name": "",
          "type": "bytes"
        }
      ],
      "name": "onERC1155Received",
      "outputs": [
        {
          "internalType": "bytes4",
          "name": "",
          "type": "bytes4"
        }
      ],
      "stateMutability": "nonpayable",
      "type": "function"
    },
    {
      "inputs": [
        {
          "internalType": "bytes4",
          "name": "interfaceId",
          "type": "bytes4"
        }
      ],
      "name": "supportsInterface",
      "outputs": [
        {
          "internalType": "bool",
          "name": "",
          "type": "bool"
        }
      ],
      "stateMutability": "view",
      "type": "function"
    }
  ],
  "bytecode": "0x60806040523480156200001157600080fd5b5060016000819055506200004960405180606001604052806028815260200162002281602891396200004f60201b6200182c1760201c565b62000114565b6200009a81604051602401620000669190620000be565b60408051601f198184030181529190526020810180516001600160e01b0390811663104c13eb60e21b179091526200009d16565b50565b80516a636f6e736f6c652e6c6f67602083016000808483855afa5050505050565b6000602080835283518082850152825b81811015620000ec57858101830151858201604001528201620000ce565b81811115620000fe5783604083870101525b50601f01601f1916929092016040019392505050565b61215d80620001246000396000f3fe6080604052600436106100915760003560e01c8063bc197c8111610059578063bc197c811461014d578063c247620d14610192578063e0391b09146101bf578063f23a6e61146101d4578063f803ace31461020057600080fd5b806301ffc9a71461009657806307490d2f146100cb57806312017ec4146100f8578063391082291461011a5780633945a60b1461013a575b600080fd5b3480156100a257600080fd5b506100b66100b1366004611d93565b610222565b60405190151581526020015b60405180910390f35b3480156100d757600080fd5b506100eb6100e6366004611aaf565b610259565b6040516100c29190611eca565b34801561010457600080fd5b50610118610113366004611ad2565b610644565b005b34801561012657600080fd5b50610118610135366004611cd1565b610b80565b610118610148366004611d68565b610d28565b34801561015957600080fd5b50610179610168366004611bc0565b63bc197c8160e01b95945050505050565b6040516001600160e01b031990911681526020016100c2565b34801561019e57600080fd5b506101b26101ad366004611aaf565b610fd8565b6040516100c29190612004565b3480156101cb57600080fd5b506100eb61123e565b3480156101e057600080fd5b506101796101ef366004611c6a565b63f23a6e6160e01b95945050505050565b34801561020c57600080fd5b50610215611601565b6040516100c29190611e69565b60006001600160e01b03198216630271189760e51b148061025357506301ffc9a760e01b6001600160e01b03198316145b92915050565b6001600160a01b03811660009081526004602052604081205460609190818167ffffffffffffffff81111561029e57634e487b7160e01b600052604160045260246000fd5b6040519080825280602002602001820160405280156102d757816020015b6102c4611893565b8152602001906001900390816102bc5790505b50905060005b828163ffffffff16101561063b576001600160a01b0386166000908152600460205260409020805463ffffffff831690811061032957634e487b7160e01b600052603260045260246000fd5b6000918252602080832090910154808352600380835260409384902084516101408101865281548152600182015494810194909452600281015463ffffffff80821696860196909652640100000000810490951660608501526001600160a01b03600160401b909504851660808501529081015490931660a083015260048301805491975091929160c08401916103bf90612087565b80601f01602080910402602001604051908101604052809291908181526020018280546103eb90612087565b80156104385780601f1061040d57610100808354040283529160200191610438565b820191906000526020600020905b81548152906001019060200180831161041b57829003601f168201915b5050505050815260200160058201805461045190612087565b80601f016020809104026020016040519081016040528092919081815260200182805461047d90612087565b80156104ca5780601f1061049f576101008083540402835291602001916104ca565b820191906000526020600020905b8154815290600101906020018083116104ad57829003601f168201915b505050505081526020016006820180546104e390612087565b80601f016020809104026020016040519081016040528092919081815260200182805461050f90612087565b801561055c5780601f106105315761010080835404028352916020019161055c565b820191906000526020600020905b81548152906001019060200180831161053f57829003601f168201915b5050505050815260200160078201805461057590612087565b80601f01602080910402602001604051908101604052809291908181526020018280546105a190612087565b80156105ee5780601f106105c3576101008083540402835291602001916105ee565b820191906000526020600020905b8154815290600101906020018083116105d157829003601f168201915b505050505081525050828263ffffffff168151811061061d57634e487b7160e01b600052603260045260246000fd5b60200260200101819052508080610633906120c2565b9150506102dd565b50949350505050565b6002600054141561069c5760405162461bcd60e51b815260206004820152601f60248201527f5265656e7472616e637947756172643a207265656e7472616e742063616c6c0060448201526064015b60405180910390fd5b600260009081556001600160a01b0389168152600560205260409020546107055760405162461bcd60e51b815260206004820152601960248201527f4e6f2073756368204172746973742052656769737465726564000000000000006044820152606401610693565b60046000896001600160a01b03166001600160a01b031681526020019081526020016000208790806001815401808255809150506001900390600052602060002001600090919091909150556000604051806101400160405280898152602001878152602001600063ffffffff1681526020018863ffffffff168152602001306001600160a01b031681526020018a6001600160a01b0316815260200186815260200185815260200184815260200183815250905080600360008a8152602001908152602001600020600082015181600001556020820151816001015560408201518160020160006101000a81548163ffffffff021916908363ffffffff16021790555060608201518160020160046101000a81548163ffffffff021916908363ffffffff16021790555060808201518160020160086101000a8154816001600160a01b0302191690836001600160a01b0316021790555060a08201518160030160006101000a8154816001600160a01b0302191690836001600160a01b0316021790555060c08201518160040190805190602001906108a6929190611904565b5060e082015180516108c2916005840191602090910190611904565b5061010082015180516108df916006840191602090910190611904565b5061012082015180516108fc916007840191602090910190611904565b505060028054600181018255600091909152825160089091027f405787fa12a823e0f2b7631cc41b3ba8828b3321ca811111fa75cd3aa3bb5ace81019182556020808501517f405787fa12a823e0f2b7631cc41b3ba8828b3321ca811111fa75cd3aa3bb5acf83015560408501517f405787fa12a823e0f2b7631cc41b3ba8828b3321ca811111fa75cd3aa3bb5ad083018054606088015160808901516001600160a01b03908116600160401b02600160401b600160e01b031963ffffffff9384166401000000000267ffffffffffffffff199095169390961692909217929092179390931692909217905560a08601517f405787fa12a823e0f2b7631cc41b3ba8828b3321ca811111fa75cd3aa3bb5ad184018054919092166001600160a01b031990911617905560c08501518051869550610a60937f405787fa12a823e0f2b7631cc41b3ba8828b3321ca811111fa75cd3aa3bb5ad201929190910190611904565b5060e08201518051610a7c916005840191602090910190611904565b506101008201518051610a99916006840191602090910190611904565b506101208201518051610ab6916007840191602090910190611904565b5050604051637921219560e11b8152336004820152306024820152604481018a905263ffffffff8916606482015260a06084820152600060a48201526001600160a01b038c16915063f242432a9060c401600060405180830381600087803b158015610b2157600080fd5b505af1158015610b35573d6000803e3d6000fd5b50506040516001600160a01b038d1692508a91507f98c3ed9c2c550f09991c73938ded09d48dc234d8195358cd4b52a2af0124d29990600090a3505060016000555050505050505050565b6001600160a01b03841660009081526005602052604090205415610be65760405162461bcd60e51b815260206004820152601960248201527f41727469737420416c72656164792052656769737465726564000000000000006044820152606401610693565b604080516080810182526001600160a01b03868116825260208083018781529383018690526060830185905260018054808201825560009190915283517fb10e2d527612073b26eecdfd717e6a320cf44b4afac2b0732d9fcbe2b7fa0cf6600490920291820180546001600160a01b031916919094161783559351805193949293610c98937fb10e2d527612073b26eecdfd717e6a320cf44b4afac2b0732d9fcbe2b7fa0cf701929190910190611904565b5060408201518051610cb4916002840191602090910190611904565b5060608201518051610cd0916003840191602090910190611904565b50506001546001600160a01b038616600090815260056020908152604091829020929092558051808201909152600c81526b105c9d1a5cdd08185919195960a21b91810191909152610d22915061182c565b50505050565b60026000541415610d7b5760405162461bcd60e51b815260206004820152601f60248201527f5265656e7472616e637947756172643a207265656e7472616e742063616c6c006044820152606401610693565b6002600090815581815260036020526040902060010154348114610e09576040805162461bcd60e51b81526020600482015260248101919091527f506c65617365207375626d6974207468652061736b696e67207072696365206960448201527f6e206f7264657220746f20636f6d706c657465207468652070757263686173656064820152608401610693565b600082815260036020819052604080832090910154905182916001600160a01b03169034908381818185875af1925050503d8060008114610e66576040519150601f19603f3d011682016040523d82523d6000602084013e610e6b565b606091505b509150915081610eb45760405162461bcd60e51b81526020600482015260146024820152732330b4b632b2103a379039b2b7321032ba3432b960611b6044820152606401610693565b604051637921219560e11b8152306004820152336024820152604481018590526001606482015260a06084820152600060a48201526001600160a01b0386169063f242432a9060c401600060405180830381600087803b158015610f1757600080fd5b505af1158015610f2b573d6000803e3d6000fd5b50505060008581526003602052604081206002018054600160401b3302600160401b600160e01b031982168117835560019450919291610f7791859163ffffffff908116911617612048565b92506101000a81548163ffffffff021916908363ffffffff160217905550336001600160a01b0316847fedd9780c911d132891b0d6c68f69e6d9086a0ddc83a683a5e62b5aed36e93eb660405160405180910390a350506001600055505050565b61100c604051806080016040528060006001600160a01b031681526020016060815260200160608152602001606081525090565b6001600160a01b038216600090815260056020526040902054600190611033908290612070565b8154811061105157634e487b7160e01b600052603260045260246000fd5b6000918252602091829020604080516080810190915260049092020180546001600160a01b03168252600181018054929391929184019161109190612087565b80601f01602080910402602001604051908101604052809291908181526020018280546110bd90612087565b801561110a5780601f106110df5761010080835404028352916020019161110a565b820191906000526020600020905b8154815290600101906020018083116110ed57829003601f168201915b5050505050815260200160028201805461112390612087565b80601f016020809104026020016040519081016040528092919081815260200182805461114f90612087565b801561119c5780601f106111715761010080835404028352916020019161119c565b820191906000526020600020905b81548152906001019060200180831161117f57829003601f168201915b505050505081526020016003820180546111b590612087565b80601f01602080910402602001604051908101604052809291908181526020018280546111e190612087565b801561122e5780601f106112035761010080835404028352916020019161122e565b820191906000526020600020905b81548152906001019060200180831161121157829003601f168201915b5050505050815250509050919050565b60025460609060008167ffffffffffffffff81111561126d57634e487b7160e01b600052604160045260246000fd5b6040519080825280602002602001820160405280156112a657816020015b611293611893565b81526020019060019003908161128b5790505b50905060005b828163ffffffff1610156115fa576003600060028363ffffffff16815481106112e557634e487b7160e01b600052603260045260246000fd5b600091825260208083206008909202909101548352828101939093526040918201902081516101408101835281548152600182015493810193909352600281015463ffffffff80821693850193909352640100000000810490921660608401526001600160a01b03600160401b90920482166080840152600381015490911660a083015260048101805460c08401919061137e90612087565b80601f01602080910402602001604051908101604052809291908181526020018280546113aa90612087565b80156113f75780601f106113cc576101008083540402835291602001916113f7565b820191906000526020600020905b8154815290600101906020018083116113da57829003601f168201915b5050505050815260200160058201805461141090612087565b80601f016020809104026020016040519081016040528092919081815260200182805461143c90612087565b80156114895780601f1061145e57610100808354040283529160200191611489565b820191906000526020600020905b81548152906001019060200180831161146c57829003601f168201915b505050505081526020016006820180546114a290612087565b80601f01602080910402602001604051908101604052809291908181526020018280546114ce90612087565b801561151b5780601f106114f05761010080835404028352916020019161151b565b820191906000526020600020905b8154815290600101906020018083116114fe57829003601f168201915b5050505050815260200160078201805461153490612087565b80601f016020809104026020016040519081016040528092919081815260200182805461156090612087565b80156115ad5780601f10611582576101008083540402835291602001916115ad565b820191906000526020600020905b81548152906001019060200180831161159057829003601f168201915b505050505081525050828263ffffffff16815181106115dc57634e487b7160e01b600052603260045260246000fd5b602002602001018190525080806115f2906120c2565b9150506112ac565b5092915050565b60606001805480602002602001604051908101604052809291908181526020016000905b8282101561182357600084815260209081902060408051608081019091526004850290910180546001600160a01b03168252600181018054929391929184019161166e90612087565b80601f016020809104026020016040519081016040528092919081815260200182805461169a90612087565b80156116e75780601f106116bc576101008083540402835291602001916116e7565b820191906000526020600020905b8154815290600101906020018083116116ca57829003601f168201915b5050505050815260200160028201805461170090612087565b80601f016020809104026020016040519081016040528092919081815260200182805461172c90612087565b80156117795780601f1061174e57610100808354040283529160200191611779565b820191906000526020600020905b81548152906001019060200180831161175c57829003601f168201915b5050505050815260200160038201805461179290612087565b80601f01602080910402602001604051908101604052809291908181526020018280546117be90612087565b801561180b5780601f106117e05761010080835404028352916020019161180b565b820191906000526020600020905b8154815290600101906020018083116117ee57829003601f168201915b50505050508152505081526020019060010190611625565b50505050905090565b61186f816040516024016118409190611ff1565b60408051601f198184030181529190526020810180516001600160e01b031663104c13eb60e21b179052611872565b50565b80516a636f6e736f6c652e6c6f67602083016000808483855afa5050505050565b6040518061014001604052806000815260200160008152602001600063ffffffff168152602001600063ffffffff16815260200160006001600160a01b0316815260200160006001600160a01b03168152602001606081526020016060815260200160608152602001606081525090565b82805461191090612087565b90600052602060002090601f0160209004810192826119325760008555611978565b82601f1061194b57805160ff1916838001178555611978565b82800160010185558215611978579182015b8281111561197857825182559160200191906001019061195d565b50611984929150611988565b5090565b5b808211156119845760008155600101611989565b80356119a881612112565b919050565b600082601f8301126119bd578081fd5b8135602067ffffffffffffffff8211156119d9576119d96120fc565b8160051b6119e8828201612017565b838152828101908684018388018501891015611a02578687fd5b8693505b85841015611a24578035835260019390930192918401918401611a06565b50979650505050505050565b600082601f830112611a40578081fd5b813567ffffffffffffffff811115611a5a57611a5a6120fc565b611a6d601f8201601f1916602001612017565b818152846020838601011115611a81578283fd5b816020850160208301379081016020019190915292915050565b803563ffffffff811681146119a857600080fd5b600060208284031215611ac0578081fd5b8135611acb81612112565b9392505050565b60008060008060008060008060006101208a8c031215611af0578485fd5b611af98a61199d565b9850611b0760208b0161199d565b975060408a01359650611b1c60608b01611a9b565b955060808a0135945060a08a013567ffffffffffffffff80821115611b3f578586fd5b611b4b8d838e01611a30565b955060c08c0135915080821115611b60578485fd5b611b6c8d838e01611a30565b945060e08c0135915080821115611b81578384fd5b611b8d8d838e01611a30565b93506101008c0135915080821115611ba3578283fd5b50611bb08c828d01611a30565b9150509295985092959850929598565b600080600080600060a08688031215611bd7578081fd5b8535611be281612112565b94506020860135611bf281612112565b9350604086013567ffffffffffffffff80821115611c0e578283fd5b611c1a89838a016119ad565b94506060880135915080821115611c2f578283fd5b611c3b89838a016119ad565b93506080880135915080821115611c50578283fd5b50611c5d88828901611a30565b9150509295509295909350565b600080600080600060a08688031215611c81578081fd5b8535611c8c81612112565b94506020860135611c9c81612112565b93506040860135925060608601359150608086013567ffffffffffffffff811115611cc5578182fd5b611c5d88828901611a30565b60008060008060808587031215611ce6578384fd5b8435611cf181612112565b9350602085013567ffffffffffffffff80821115611d0d578485fd5b611d1988838901611a30565b94506040870135915080821115611d2e578384fd5b611d3a88838901611a30565b93506060870135915080821115611d4f578283fd5b50611d5c87828801611a30565b91505092959194509250565b60008060408385031215611d7a578182fd5b8235611d8581612112565b946020939093013593505050565b600060208284031215611da4578081fd5b81356001600160e01b031981168114611acb578182fd5b60008151808452815b81811015611de057602081850181015186830182015201611dc4565b81811115611df15782602083870101525b50601f01601f19169290920160200192915050565b60018060a01b0381511682526000602082015160806020850152611e2d6080850182611dbb565b905060408301518482036040860152611e468282611dbb565b91505060608301518482036060860152611e608282611dbb565b95945050505050565b6000602080830181845280855180835260408601915060408160051b8701019250838701855b82811015611ebd57603f19888603018452611eab858351611e06565b94509285019290850190600101611e8f565b5092979650505050505050565b60006020808301818452808551808352604092508286019150828160051b870101848801865b83811015611fe357888303603f1901855281518051845287810151888501528681015163ffffffff811688860152610140905060608281015163ffffffff81168783015250506080828101516001600160a01b03811687830152505060a0828101516001600160a01b03811687830152505060c0808301518282880152611f7983880182611dbb565b9250505060e08083015186830382880152611f948382611dbb565b925050506101008083015186830382880152611fb08382611dbb565b925050506101208083015192508582038187015250611fcf8183611dbb565b968901969450505090860190600101611ef0565b509098975050505050505050565b602081526000611acb6020830184611dbb565b602081526000611acb6020830184611e06565b604051601f8201601f1916810167ffffffffffffffff81118282101715612040576120406120fc565b604052919050565b600063ffffffff808316818516808303821115612067576120676120e6565b01949350505050565b600082821015612082576120826120e6565b500390565b600181811c9082168061209b57607f821691505b602082108114156120bc57634e487b7160e01b600052602260045260246000fd5b50919050565b600063ffffffff808316818114156120dc576120dc6120e6565b6001019392505050565b634e487b7160e01b600052601160045260246000fd5b634e487b7160e01b600052604160045260246000fd5b6001600160a01b038116811461186f57600080fdfea264697066735822122092f88cc4d26b32655e4c67a9930555fde76a0258c3efa2e2198a1a7780a0c61764736f6c634300080400335468697320697320746865204e4654204d61726b6574706c61636520436f6e7472616374205e5f5e",
  "linkReferences": {},
  "deployedLinkReferences": {}
}