{
  "_format": "hh-sol-artifact-1",
  "contractName": "NFTMarketplace",
  "sourceName": "contracts/NFTMarketplace.sol",
  "abi": [
    {
      "inputs": [],
      "stateMutability": "nonpayable",
      "type": "constructor"
    },
    {
      "anonymous": false,
      "inputs": [
        {
          "indexed": true,
          "internalType": "uint256",
          "name": "tokenId",
          "type": "uint256"
        },
        {
          "indexed": true,
          "internalType": "address",
          "name": "nftContract",
          "type": "address"
        }
      ],
      "name": "FanClubNFTMinted",
      "type": "event"
    },
    {
      "inputs": [
        {
          "internalType": "address",
          "name": "_artistAddress",
          "type": "address"
        },
        {
          "internalType": "string",
          "name": "_artistName",
          "type": "string"
        },
        {
          "internalType": "string",
          "name": "_imageURI",
          "type": "string"
        },
        {
          "internalType": "string",
          "name": "_artCategory",
          "type": "string"
        }
      ],
      "name": "addArtist",
      "outputs": [],
      "stateMutability": "nonpayable",
      "type": "function"
    },
    {
      "inputs": [
        {
          "internalType": "address",
          "name": "nftContract",
          "type": "address"
        },
        {
          "internalType": "uint256",
          "name": "tokenId",
          "type": "uint256"
        }
      ],
      "name": "buyNFTs",
      "outputs": [],
      "stateMutability": "payable",
      "type": "function"
    },
    {
      "inputs": [],
      "name": "getAllArtists",
      "outputs": [
        {
          "components": [
            {
              "internalType": "address",
              "name": "artistId",
              "type": "address"
            },
            {
              "internalType": "string",
              "name": "artistName",
              "type": "string"
            },
            {
              "internalType": "string",
              "name": "artistImageURI",
              "type": "string"
            },
            {
              "internalType": "string",
              "name": "artCategory",
              "type": "string"
            }
          ],
          "internalType": "struct NFTMarketplace.ArtistAttributes[]",
          "name": "",
          "type": "tuple[]"
        }
      ],
      "stateMutability": "view",
      "type": "function"
    },
    {
      "inputs": [],
      "name": "getAllNFTs",
      "outputs": [
        {
          "components": [
            {
              "internalType": "uint256",
              "name": "tokenId",
              "type": "uint256"
            },
            {
              "internalType": "uint256",
              "name": "tokenPrice",
              "type": "uint256"
            },
            {
              "internalType": "uint32",
              "name": "soldCount",
              "type": "uint32"
            },
            {
              "internalType": "uint32",
              "name": "totalCount",
              "type": "uint32"
            },
            {
              "internalType": "address payable",
              "name": "currentOwner",
              "type": "address"
            },
            {
              "internalType": "address payable",
              "name": "creator",
              "type": "address"
            }
          ],
          "internalType": "struct NFTMarketplace.TokenInfo[]",
          "name": "",
          "type": "tuple[]"
        }
      ],
      "stateMutability": "view",
      "type": "function"
    },
    {
      "inputs": [
        {
          "internalType": "address",
          "name": "_artistAddress",
          "type": "address"
        }
      ],
      "name": "getArtistInfo",
      "outputs": [
        {
          "components": [
            {
              "internalType": "address",
              "name": "artistId",
              "type": "address"
            },
            {
              "internalType": "string",
              "name": "artistName",
              "type": "string"
            },
            {
              "internalType": "string",
              "name": "artistImageURI",
              "type": "string"
            },
            {
              "internalType": "string",
              "name": "artCategory",
              "type": "string"
            }
          ],
          "internalType": "struct NFTMarketplace.ArtistAttributes",
          "name": "",
          "type": "tuple"
        }
      ],
      "stateMutability": "view",
      "type": "function"
    },
    {
      "inputs": [
        {
          "internalType": "address",
          "name": "_artistAddress",
          "type": "address"
        }
      ],
      "name": "getNFTsOfArtist",
      "outputs": [
        {
          "components": [
            {
              "internalType": "uint256",
              "name": "tokenId",
              "type": "uint256"
            },
            {
              "internalType": "uint256",
              "name": "tokenPrice",
              "type": "uint256"
            },
            {
              "internalType": "uint32",
              "name": "soldCount",
              "type": "uint32"
            },
            {
              "internalType": "uint32",
              "name": "totalCount",
              "type": "uint32"
            },
            {
              "internalType": "address payable",
              "name": "currentOwner",
              "type": "address"
            },
            {
              "internalType": "address payable",
              "name": "creator",
              "type": "address"
            }
          ],
          "internalType": "struct NFTMarketplace.TokenInfo[]",
          "name": "",
          "type": "tuple[]"
        }
      ],
      "stateMutability": "view",
      "type": "function"
    },
    {
      "inputs": [
        {
          "internalType": "address",
          "name": "nftContract",
          "type": "address"
        },
        {
          "internalType": "address payable",
          "name": "artistAddress",
          "type": "address"
        },
        {
          "internalType": "uint256",
          "name": "_tokenId",
          "type": "uint256"
        },
        {
          "internalType": "uint32",
          "name": "_amount",
          "type": "uint32"
        },
        {
          "internalType": "uint256",
          "name": "_tokenPrice",
          "type": "uint256"
        }
      ],
      "name": "listNFT",
      "outputs": [],
      "stateMutability": "nonpayable",
      "type": "function"
    },
    {
      "inputs": [
        {
          "internalType": "address",
          "name": "",
          "type": "address"
        },
        {
          "internalType": "address",
          "name": "",
          "type": "address"
        },
        {
          "internalType": "uint256[]",
          "name": "",
          "type": "uint256[]"
        },
        {
          "internalType": "uint256[]",
          "name": "",
          "type": "uint256[]"
        },
        {
          "internalType": "bytes",
          "name": "",
          "type": "bytes"
        }
      ],
      "name": "onERC1155BatchReceived",
      "outputs": [
        {
          "internalType": "bytes4",
          "name": "",
          "type": "bytes4"
        }
      ],
      "stateMutability": "nonpayable",
      "type": "function"
    },
    {
      "inputs": [
        {
          "internalType": "address",
          "name": "",
          "type": "address"
        },
        {
          "internalType": "address",
          "name": "",
          "type": "address"
        },
        {
          "internalType": "uint256",
          "name": "",
          "type": "uint256"
        },
        {
          "internalType": "uint256",
          "name": "",
          "type": "uint256"
        },
        {
          "internalType": "bytes",
          "name": "",
          "type": "bytes"
        }
      ],
      "name": "onERC1155Received",
      "outputs": [
        {
          "internalType": "bytes4",
          "name": "",
          "type": "bytes4"
        }
      ],
      "stateMutability": "nonpayable",
      "type": "function"
    },
    {
      "inputs": [
        {
          "internalType": "bytes4",
          "name": "interfaceId",
          "type": "bytes4"
        }
      ],
      "name": "supportsInterface",
      "outputs": [
        {
          "internalType": "bool",
          "name": "",
          "type": "bool"
        }
      ],
      "stateMutability": "view",
      "type": "function"
    }
  ],
  "bytecode": "0x60806040523480156200001157600080fd5b506001600081905550620000496040518060600160405280602881526020016200197d602891396200004f60201b620010de1760201c565b62000114565b6200009a81604051602401620000669190620000be565b60408051601f198184030181529190526020810180516001600160e01b0390811663104c13eb60e21b179091526200009d16565b50565b80516a636f6e736f6c652e6c6f67602083016000808483855afa5050505050565b6000602080835283518082850152825b81811015620000ec57858101830151858201604001528201620000ce565b81811115620000fe5783604083870101525b50601f01601f1916929092016040019392505050565b61185980620001246000396000f3fe6080604052600436106100915760003560e01c8063bc197c8111610059578063bc197c811461014d578063c247620d14610192578063e0391b09146101bf578063f23a6e61146101d4578063f803ace31461020057600080fd5b806301ffc9a71461009657806307490d2f146100cb578063077b8282146100f8578063391082291461011a5780633945a60b1461013a575b600080fd5b3480156100a257600080fd5b506100b66100b1366004611524565b610222565b60405190151581526020015b60405180910390f35b3480156100d757600080fd5b506100eb6100e63660046112cc565b610259565b6040516100c2919061165b565b34801561010457600080fd5b506101186101133660046112ef565b610417565b005b34801561012657600080fd5b50610118610135366004611462565b6107db565b6101186101483660046114f9565b610983565b34801561015957600080fd5b50610179610168366004611351565b63bc197c8160e01b95945050505050565b6040516001600160e01b031990911681526020016100c2565b34801561019e57600080fd5b506101b26101ad3660046112cc565b610ba2565b6040516100c29190611700565b3480156101cb57600080fd5b506100eb610e08565b3480156101e057600080fd5b506101796101ef3660046113fb565b63f23a6e6160e01b95945050505050565b34801561020c57600080fd5b50610215610ebc565b6040516100c291906115fa565b60006001600160e01b03198216630271189760e51b148061025357506301ffc9a760e01b6001600160e01b03198316145b92915050565b6001600160a01b03811660009081526004602052604081205460609190818167ffffffffffffffff81111561029e57634e487b7160e01b600052604160045260246000fd5b6040519080825280602002602001820160405280156102fe57816020015b6040805160c08101825260008082526020808301829052928201819052606082018190526080820181905260a082015282526000199092019101816102bc5790505b50905060005b828163ffffffff16101561040e576001600160a01b0386166000908152600460205260409020805463ffffffff831690811061035057634e487b7160e01b600052603260045260246000fd5b60009182526020808320909101548083526003808352604093849020845160c08101865281548152600182015494810194909452600281015463ffffffff808216968601969096526401000000008104861660608601526001600160a01b03600160401b909104811660808601529101541660a08301528451909650909184919084169081106103f057634e487b7160e01b600052603260045260246000fd5b60200260200101819052508080610406906117be565b915050610304565b50949350505050565b6002600054141561046f5760405162461bcd60e51b815260206004820152601f60248201527f5265656e7472616e637947756172643a207265656e7472616e742063616c6c0060448201526064015b60405180910390fd5b600260009081556001600160a01b0385168152600560205260409020546104d85760405162461bcd60e51b815260206004820152601960248201527f4e6f2073756368204172746973742052656769737465726564000000000000006044820152606401610466565b60046000856001600160a01b03166001600160a01b0316815260200190815260200160002083908060018154018082558091505060019003906000526020600020016000909190919091505560006040518060c00160405280858152602001838152602001600063ffffffff1681526020018463ffffffff168152602001306001600160a01b03168152602001866001600160a01b031681525090508060036000868152602001908152602001600020600082015181600001556020820151816001015560408201518160020160006101000a81548163ffffffff021916908363ffffffff16021790555060608201518160020160046101000a81548163ffffffff021916908363ffffffff16021790555060808201518160020160086101000a8154816001600160a01b0302191690836001600160a01b0316021790555060a08201518160030160006101000a8154816001600160a01b0302191690836001600160a01b031602179055509050506002819080600181540180825580915050600190039060005260206000209060040201600090919091909150600082015181600001556020820151816001015560408201518160020160006101000a81548163ffffffff021916908363ffffffff16021790555060608201518160020160046101000a81548163ffffffff021916908363ffffffff16021790555060808201518160020160086101000a8154816001600160a01b0302191690836001600160a01b0316021790555060a08201518160030160006101000a8154816001600160a01b0302191690836001600160a01b031602179055505050856001600160a01b031663f242432a333087876040518563ffffffff1660e01b815260040161079c94939291906001600160a01b039485168152929093166020830152604082015263ffffffff91909116606082015260a06080820181905260009082015260c00190565b600060405180830381600087803b1580156107b657600080fd5b505af11580156107ca573d6000803e3d6000fd5b505060016000555050505050505050565b6001600160a01b038416600090815260056020526040902054156108415760405162461bcd60e51b815260206004820152601960248201527f41727469737420416c72656164792052656769737465726564000000000000006044820152606401610466565b604080516080810182526001600160a01b03868116825260208083018781529383018690526060830185905260018054808201825560009190915283517fb10e2d527612073b26eecdfd717e6a320cf44b4afac2b0732d9fcbe2b7fa0cf6600490920291820180546001600160a01b0319169190941617835593518051939492936108f3937fb10e2d527612073b26eecdfd717e6a320cf44b4afac2b0732d9fcbe2b7fa0cf701929190910190611145565b506040820151805161090f916002840191602090910190611145565b506060820151805161092b916003840191602090910190611145565b50506001546001600160a01b038616600090815260056020908152604091829020929092558051808201909152600c81526b105c9d1a5cdd08185919195960a21b9181019190915261097d91506110de565b50505050565b600260005414156109d65760405162461bcd60e51b815260206004820152601f60248201527f5265656e7472616e637947756172643a207265656e7472616e742063616c6c006044820152606401610466565b6002600090815581815260036020526040902060010154348114610a64576040805162461bcd60e51b81526020600482015260248101919091527f506c65617365207375626d6974207468652061736b696e67207072696365206960448201527f6e206f7264657220746f20636f6d706c657465207468652070757263686173656064820152608401610466565b60008281526003602081905260408083209091015490516001600160a01b03909116913480156108fc02929091818181858888f19350505050158015610aae573d6000803e3d6000fd5b50604051637921219560e11b8152306004820152336024820152604481018390526001606482015260a06084820152600060a48201526001600160a01b0384169063f242432a9060c401600060405180830381600087803b158015610b1257600080fd5b505af1158015610b26573d6000803e3d6000fd5b50505060008381526003602052604081206002018054600160401b330268010000000000000000600160e01b031982168117835560019450919291610b7791859163ffffffff908116911617611744565b92506101000a81548163ffffffff021916908363ffffffff1602179055505060016000819055505050565b610bd6604051806080016040528060006001600160a01b031681526020016060815260200160608152602001606081525090565b6001600160a01b038216600090815260056020526040902054600190610bfd90829061176c565b81548110610c1b57634e487b7160e01b600052603260045260246000fd5b6000918252602091829020604080516080810190915260049092020180546001600160a01b031682526001810180549293919291840191610c5b90611783565b80601f0160208091040260200160405190810160405280929190818152602001828054610c8790611783565b8015610cd45780601f10610ca957610100808354040283529160200191610cd4565b820191906000526020600020905b815481529060010190602001808311610cb757829003601f168201915b50505050508152602001600282018054610ced90611783565b80601f0160208091040260200160405190810160405280929190818152602001828054610d1990611783565b8015610d665780601f10610d3b57610100808354040283529160200191610d66565b820191906000526020600020905b815481529060010190602001808311610d4957829003601f168201915b50505050508152602001600382018054610d7f90611783565b80601f0160208091040260200160405190810160405280929190818152602001828054610dab90611783565b8015610df85780601f10610dcd57610100808354040283529160200191610df8565b820191906000526020600020905b815481529060010190602001808311610ddb57829003601f168201915b5050505050815250509050919050565b60606002805480602002602001604051908101604052809291908181526020016000905b82821015610eb35760008481526020908190206040805160c081018252600486029092018054835260018082015484860152600282015463ffffffff8082169486019490945264010000000081049093166060850152600160401b9092046001600160a01b0390811660808501526003909101541660a08301529083529092019101610e2c565b50505050905090565b60606001805480602002602001604051908101604052809291908181526020016000905b82821015610eb357600084815260209081902060408051608081019091526004850290910180546001600160a01b031682526001810180549293919291840191610f2990611783565b80601f0160208091040260200160405190810160405280929190818152602001828054610f5590611783565b8015610fa25780601f10610f7757610100808354040283529160200191610fa2565b820191906000526020600020905b815481529060010190602001808311610f8557829003601f168201915b50505050508152602001600282018054610fbb90611783565b80601f0160208091040260200160405190810160405280929190818152602001828054610fe790611783565b80156110345780601f1061100957610100808354040283529160200191611034565b820191906000526020600020905b81548152906001019060200180831161101757829003601f168201915b5050505050815260200160038201805461104d90611783565b80601f016020809104026020016040519081016040528092919081815260200182805461107990611783565b80156110c65780601f1061109b576101008083540402835291602001916110c6565b820191906000526020600020905b8154815290600101906020018083116110a957829003601f168201915b50505050508152505081526020019060010190610ee0565b611121816040516024016110f291906116ed565b60408051601f198184030181529190526020810180516001600160e01b031663104c13eb60e21b179052611124565b50565b80516a636f6e736f6c652e6c6f67602083016000808483855afa5050505050565b82805461115190611783565b90600052602060002090601f01602090048101928261117357600085556111b9565b82601f1061118c57805160ff19168380011785556111b9565b828001600101855582156111b9579182015b828111156111b957825182559160200191906001019061119e565b506111c59291506111c9565b5090565b5b808211156111c557600081556001016111ca565b600082601f8301126111ee578081fd5b8135602067ffffffffffffffff82111561120a5761120a6117f8565b8160051b611219828201611713565b838152828101908684018388018501891015611233578687fd5b8693505b85841015611255578035835260019390930192918401918401611237565b50979650505050505050565b600082601f830112611271578081fd5b813567ffffffffffffffff81111561128b5761128b6117f8565b61129e601f8201601f1916602001611713565b8181528460208386010111156112b2578283fd5b816020850160208301379081016020019190915292915050565b6000602082840312156112dd578081fd5b81356112e88161180e565b9392505050565b600080600080600060a08688031215611306578081fd5b85356113118161180e565b945060208601356113218161180e565b935060408601359250606086013563ffffffff81168114611340578182fd5b949793965091946080013592915050565b600080600080600060a08688031215611368578081fd5b85356113738161180e565b945060208601356113838161180e565b9350604086013567ffffffffffffffff8082111561139f578283fd5b6113ab89838a016111de565b945060608801359150808211156113c0578283fd5b6113cc89838a016111de565b935060808801359150808211156113e1578283fd5b506113ee88828901611261565b9150509295509295909350565b600080600080600060a08688031215611412578081fd5b853561141d8161180e565b9450602086013561142d8161180e565b93506040860135925060608601359150608086013567ffffffffffffffff811115611456578182fd5b6113ee88828901611261565b60008060008060808587031215611477578384fd5b84356114828161180e565b9350602085013567ffffffffffffffff8082111561149e578485fd5b6114aa88838901611261565b945060408701359150808211156114bf578384fd5b6114cb88838901611261565b935060608701359150808211156114e0578283fd5b506114ed87828801611261565b91505092959194509250565b6000806040838503121561150b578182fd5b82356115168161180e565b946020939093013593505050565b600060208284031215611535578081fd5b81356001600160e01b0319811681146112e8578182fd5b60008151808452815b8181101561157157602081850181015186830182015201611555565b818111156115825782602083870101525b50601f01601f19169290920160200192915050565b60018060a01b03815116825260006020820151608060208501526115be608085018261154c565b9050604083015184820360408601526115d7828261154c565b915050606083015184820360608601526115f1828261154c565b95945050505050565b6000602080830181845280855180835260408601915060408160051b8701019250838701855b8281101561164e57603f1988860301845261163c858351611597565b94509285019290850190600101611620565b5092979650505050505050565b602080825282518282018190526000919060409081850190868401855b828110156116e05781518051855286810151878601528581015163ffffffff90811687870152606080830151909116908601526080808201516001600160a01b039081169187019190915260a091820151169085015260c09093019290850190600101611678565b5091979650505050505050565b6020815260006112e8602083018461154c565b6020815260006112e86020830184611597565b604051601f8201601f1916810167ffffffffffffffff8111828210171561173c5761173c6117f8565b604052919050565b600063ffffffff808316818516808303821115611763576117636117e2565b01949350505050565b60008282101561177e5761177e6117e2565b500390565b600181811c9082168061179757607f821691505b602082108114156117b857634e487b7160e01b600052602260045260246000fd5b50919050565b600063ffffffff808316818114156117d8576117d86117e2565b6001019392505050565b634e487b7160e01b600052601160045260246000fd5b634e487b7160e01b600052604160045260246000fd5b6001600160a01b038116811461112157600080fdfea2646970667358221220a7adedf5c96cde2372f94afe6c3692fd20cdc6691c105197a94997d70a6e8e0964736f6c634300080400335468697320697320746865204e4654204d61726b6574706c61636520436f6e7472616374205e5f5e",
  "linkReferences": {},
  "deployedLinkReferences": {}
}