{
  "_format": "hh-sol-artifact-1",
  "contractName": "FanClubNFT",
  "sourceName": "contracts/FanClubNFT.sol",
  "abi": [
    {
      "inputs": [
        {
          "internalType": "string",
          "name": "_name",
          "type": "string"
        },
        {
          "internalType": "string",
          "name": "_symbol",
          "type": "string"
        },
        {
          "internalType": "address",
          "name": "marketplaceAddress",
          "type": "address"
        }
      ],
      "stateMutability": "nonpayable",
      "type": "constructor"
    },
    {
      "anonymous": false,
      "inputs": [
        {
          "indexed": true,
          "internalType": "address",
          "name": "account",
          "type": "address"
        },
        {
          "indexed": true,
          "internalType": "address",
          "name": "operator",
          "type": "address"
        },
        {
          "indexed": false,
          "internalType": "bool",
          "name": "approved",
          "type": "bool"
        }
      ],
      "name": "ApprovalForAll",
      "type": "event"
    },
    {
      "anonymous": false,
      "inputs": [
        {
          "indexed": true,
          "internalType": "address",
          "name": "operator",
          "type": "address"
        },
        {
          "indexed": true,
          "internalType": "address",
          "name": "from",
          "type": "address"
        },
        {
          "indexed": true,
          "internalType": "address",
          "name": "to",
          "type": "address"
        },
        {
          "indexed": false,
          "internalType": "uint256[]",
          "name": "ids",
          "type": "uint256[]"
        },
        {
          "indexed": false,
          "internalType": "uint256[]",
          "name": "values",
          "type": "uint256[]"
        }
      ],
      "name": "TransferBatch",
      "type": "event"
    },
    {
      "anonymous": false,
      "inputs": [
        {
          "indexed": true,
          "internalType": "address",
          "name": "operator",
          "type": "address"
        },
        {
          "indexed": true,
          "internalType": "address",
          "name": "from",
          "type": "address"
        },
        {
          "indexed": true,
          "internalType": "address",
          "name": "to",
          "type": "address"
        },
        {
          "indexed": false,
          "internalType": "uint256",
          "name": "id",
          "type": "uint256"
        },
        {
          "indexed": false,
          "internalType": "uint256",
          "name": "value",
          "type": "uint256"
        }
      ],
      "name": "TransferSingle",
      "type": "event"
    },
    {
      "anonymous": false,
      "inputs": [
        {
          "indexed": false,
          "internalType": "string",
          "name": "value",
          "type": "string"
        },
        {
          "indexed": true,
          "internalType": "uint256",
          "name": "id",
          "type": "uint256"
        }
      ],
      "name": "URI",
      "type": "event"
    },
    {
      "inputs": [
        {
          "internalType": "address",
          "name": "account",
          "type": "address"
        },
        {
          "internalType": "uint256",
          "name": "id",
          "type": "uint256"
        }
      ],
      "name": "balanceOf",
      "outputs": [
        {
          "internalType": "uint256",
          "name": "",
          "type": "uint256"
        }
      ],
      "stateMutability": "view",
      "type": "function"
    },
    {
      "inputs": [
        {
          "internalType": "address[]",
          "name": "accounts",
          "type": "address[]"
        },
        {
          "internalType": "uint256[]",
          "name": "ids",
          "type": "uint256[]"
        }
      ],
      "name": "balanceOfBatch",
      "outputs": [
        {
          "internalType": "uint256[]",
          "name": "",
          "type": "uint256[]"
        }
      ],
      "stateMutability": "view",
      "type": "function"
    },
    {
      "inputs": [
        {
          "internalType": "address",
          "name": "account",
          "type": "address"
        },
        {
          "internalType": "address",
          "name": "operator",
          "type": "address"
        }
      ],
      "name": "isApprovedForAll",
      "outputs": [
        {
          "internalType": "bool",
          "name": "",
          "type": "bool"
        }
      ],
      "stateMutability": "view",
      "type": "function"
    },
    {
      "inputs": [
        {
          "internalType": "uint32",
          "name": "_amount",
          "type": "uint32"
        },
        {
          "internalType": "string",
          "name": "_tokenURI",
          "type": "string"
        }
      ],
      "name": "launchNFT",
      "outputs": [
        {
          "internalType": "uint256",
          "name": "",
          "type": "uint256"
        }
      ],
      "stateMutability": "nonpayable",
      "type": "function"
    },
    {
      "inputs": [],
      "name": "name",
      "outputs": [
        {
          "internalType": "string",
          "name": "",
          "type": "string"
        }
      ],
      "stateMutability": "view",
      "type": "function"
    },
    {
      "inputs": [
        {
          "internalType": "address",
          "name": "from",
          "type": "address"
        },
        {
          "internalType": "address",
          "name": "to",
          "type": "address"
        },
        {
          "internalType": "uint256[]",
          "name": "ids",
          "type": "uint256[]"
        },
        {
          "internalType": "uint256[]",
          "name": "amounts",
          "type": "uint256[]"
        },
        {
          "internalType": "bytes",
          "name": "data",
          "type": "bytes"
        }
      ],
      "name": "safeBatchTransferFrom",
      "outputs": [],
      "stateMutability": "nonpayable",
      "type": "function"
    },
    {
      "inputs": [
        {
          "internalType": "address",
          "name": "from",
          "type": "address"
        },
        {
          "internalType": "address",
          "name": "to",
          "type": "address"
        },
        {
          "internalType": "uint256",
          "name": "id",
          "type": "uint256"
        },
        {
          "internalType": "uint256",
          "name": "amount",
          "type": "uint256"
        },
        {
          "internalType": "bytes",
          "name": "data",
          "type": "bytes"
        }
      ],
      "name": "safeTransferFrom",
      "outputs": [],
      "stateMutability": "nonpayable",
      "type": "function"
    },
    {
      "inputs": [
        {
          "internalType": "address",
          "name": "operator",
          "type": "address"
        },
        {
          "internalType": "bool",
          "name": "approved",
          "type": "bool"
        }
      ],
      "name": "setApprovalForAll",
      "outputs": [],
      "stateMutability": "nonpayable",
      "type": "function"
    },
    {
      "inputs": [
        {
          "internalType": "uint256",
          "name": "tokenId",
          "type": "uint256"
        },
        {
          "internalType": "string",
          "name": "_newURI",
          "type": "string"
        }
      ],
      "name": "setTokenURI",
      "outputs": [],
      "stateMutability": "nonpayable",
      "type": "function"
    },
    {
      "inputs": [
        {
          "internalType": "bytes4",
          "name": "interfaceId",
          "type": "bytes4"
        }
      ],
      "name": "supportsInterface",
      "outputs": [
        {
          "internalType": "bool",
          "name": "",
          "type": "bool"
        }
      ],
      "stateMutability": "view",
      "type": "function"
    },
    {
      "inputs": [],
      "name": "symbol",
      "outputs": [
        {
          "internalType": "string",
          "name": "",
          "type": "string"
        }
      ],
      "stateMutability": "view",
      "type": "function"
    },
    {
      "inputs": [
        {
          "internalType": "uint256",
          "name": "_tokenId",
          "type": "uint256"
        }
      ],
      "name": "uri",
      "outputs": [
        {
          "internalType": "string",
          "name": "",
          "type": "string"
        }
      ],
      "stateMutability": "view",
      "type": "function"
    }
  ],
  "bytecode": "0x60806040523480156200001157600080fd5b5060405162001b2838038062001b28833981016040819052620000349162000226565b6040805160208101909152600081526200004e8162000084565b506200005b83836200009d565b600580546001600160a01b0319166001600160a01b039290921691909117905550620003029050565b805162000099906002906020840190620000cd565b5050565b8151620000b2906003906020850190620000cd565b508051620000c8906004906020840190620000cd565b505050565b828054620000db90620002af565b90600052602060002090601f016020900481019282620000ff57600085556200014a565b82601f106200011a57805160ff19168380011785556200014a565b828001600101855582156200014a579182015b828111156200014a5782518255916020019190600101906200012d565b50620001589291506200015c565b5090565b5b808211156200015857600081556001016200015d565b600082601f83011262000184578081fd5b81516001600160401b0380821115620001a157620001a1620002ec565b604051601f8301601f19908116603f01168101908282118183101715620001cc57620001cc620002ec565b81604052838152602092508683858801011115620001e8578485fd5b8491505b838210156200020b5785820183015181830184015290820190620001ec565b838211156200021c57848385830101525b9695505050505050565b6000806000606084860312156200023b578283fd5b83516001600160401b038082111562000252578485fd5b620002608783880162000173565b9450602086015191508082111562000276578384fd5b50620002858682870162000173565b604086015190935090506001600160a01b0381168114620002a4578182fd5b809150509250925092565b600181811c90821680620002c457607f821691505b60208210811415620002e657634e487b7160e01b600052602260045260246000fd5b50919050565b634e487b7160e01b600052604160045260246000fd5b61181680620003126000396000f3fe608060405234801561001057600080fd5b50600436106100b35760003560e01c806341f3def61161007157806341f3def6146101515780634e1273f41461016457806395d89b4114610184578063a22cb4651461018c578063e985e9c51461019f578063f242432a146101db57600080fd5b8062fdd58e146100b857806301ffc9a7146100de57806306fdde03146101015780630e89341c14610116578063162094c4146101295780632eb2c2d61461013e575b600080fd5b6100cb6100c6366004611228565b6101ee565b6040519081526020015b60405180910390f35b6100f16100ec36600461131c565b610285565b60405190151581526020016100d5565b6101096102d7565b6040516100d59190611550565b610109610124366004611354565b610365565b61013c61013736600461136c565b610407565b005b61013c61014c3660046110e5565b61048a565b6100cb61015f3660046113a7565b610521565b610177610172366004611251565b610587565b6040516100d5919061150f565b6101096106e9565b61013c61019a3660046111ee565b6106f6565b6100f16101ad3660046110b3565b6001600160a01b03918216600090815260016020908152604080832093909416825291909152205460ff1690565b61013c6101e936600461118b565b610705565b60006001600160a01b03831661025f5760405162461bcd60e51b815260206004820152602b60248201527f455243313135353a2062616c616e636520717565727920666f7220746865207a60448201526a65726f206164647265737360a81b60648201526084015b60405180910390fd5b506000908152602081815260408083206001600160a01b03949094168352929052205490565b60006001600160e01b03198216636cdb3d1360e11b14806102b657506001600160e01b031982166303a24d0760e21b145b806102d157506301ffc9a760e01b6001600160e01b03198316145b92915050565b600380546102e490611676565b80601f016020809104026020016040519081016040528092919081815260200182805461031090611676565b801561035d5780601f106103325761010080835404028352916020019161035d565b820191906000526020600020905b81548152906001019060200180831161034057829003601f168201915b505050505081565b600081815260076020526040902080546060919061038290611676565b80601f01602080910402602001604051908101604052809291908181526020018280546103ae90611676565b80156103fb5780601f106103d0576101008083540402835291602001916103fb565b820191906000526020600020905b8154815290600101906020018083116103de57829003601f168201915b50505050509050919050565b6000828152600760205260409020805461042090611676565b1590506104665760405162461bcd60e51b815260206004820152601460248201527343616e6e6f74207365742075726920747769636560601b6044820152606401610256565b6000828152600760209081526040909120825161048592840190610f1b565b505050565b6001600160a01b0385163314806104a657506104a685336101ad565b61050d5760405162461bcd60e51b815260206004820152603260248201527f455243313135353a207472616e736665722063616c6c6572206973206e6f74206044820152711bdddb995c881b9bdc88185c1c1c9bdd995960721b6064820152608401610256565b61051a858585858561078c565b5050505050565b6000610531600680546001019055565b600061053c60065490565b905061055f33828663ffffffff1660405180602001604052806000815250610985565b6105698184610407565b600554610580906001600160a01b031660016106f6565b9392505050565b606081518351146105ec5760405162461bcd60e51b815260206004820152602960248201527f455243313135353a206163636f756e747320616e6420696473206c656e677468604482015268040dad2e6dac2e8c6d60bb1b6064820152608401610256565b6000835167ffffffffffffffff81111561061657634e487b7160e01b600052604160045260246000fd5b60405190808252806020026020018201604052801561063f578160200160208202803683370190505b50905060005b84518110156106e1576106a685828151811061067157634e487b7160e01b600052603260045260246000fd5b602002602001015185838151811061069957634e487b7160e01b600052603260045260246000fd5b60200260200101516101ee565b8282815181106106c657634e487b7160e01b600052603260045260246000fd5b60209081029190910101526106da816116de565b9050610645565b509392505050565b600480546102e490611676565b610701338383610a8f565b5050565b6001600160a01b038516331480610721575061072185336101ad565b61077f5760405162461bcd60e51b815260206004820152602960248201527f455243313135353a2063616c6c6572206973206e6f74206f776e6572206e6f7260448201526808185c1c1c9bdd995960ba1b6064820152608401610256565b61051a8585858585610b70565b81518351146107ee5760405162461bcd60e51b815260206004820152602860248201527f455243313135353a2069647320616e6420616d6f756e7473206c656e677468206044820152670dad2e6dac2e8c6d60c31b6064820152608401610256565b6001600160a01b0384166108145760405162461bcd60e51b8152600401610256906115ab565b3360005b845181101561091757600085828151811061084357634e487b7160e01b600052603260045260246000fd5b60200260200101519050600085838151811061086f57634e487b7160e01b600052603260045260246000fd5b602090810291909101810151600084815280835260408082206001600160a01b038e1683529093529190912054909150818110156108bf5760405162461bcd60e51b8152600401610256906115f0565b6000838152602081815260408083206001600160a01b038e8116855292528083208585039055908b168252812080548492906108fc90849061165e565b9250508190555050505080610910906116de565b9050610818565b50846001600160a01b0316866001600160a01b0316826001600160a01b03167f4a39dc06d4c0dbc64b70af90fd698a233a518aa5d07e595d983b8c0526c8f7fb8787604051610967929190611522565b60405180910390a461097d818787878787610c8d565b505050505050565b6001600160a01b0384166109e55760405162461bcd60e51b815260206004820152602160248201527f455243313135353a206d696e7420746f20746865207a65726f206164647265736044820152607360f81b6064820152608401610256565b336109ff816000876109f688610df8565b61051a88610df8565b6000848152602081815260408083206001600160a01b038916845290915281208054859290610a2f90849061165e565b909155505060408051858152602081018590526001600160a01b0380881692600092918516917fc3d58168c5ae7397731d063d5bbf3d657854427343f4c083240f7aacaa2d0f62910160405180910390a461051a81600087878787610e51565b816001600160a01b0316836001600160a01b03161415610b035760405162461bcd60e51b815260206004820152602960248201527f455243313135353a2073657474696e6720617070726f76616c20737461747573604482015268103337b91039b2b63360b91b6064820152608401610256565b6001600160a01b03838116600081815260016020908152604080832094871680845294825291829020805460ff191686151590811790915591519182527f17307eab39ab6107e8899845ad3d59bd9653f200f220920489ca2b5937696c31910160405180910390a3505050565b6001600160a01b038416610b965760405162461bcd60e51b8152600401610256906115ab565b33610ba68187876109f688610df8565b6000848152602081815260408083206001600160a01b038a16845290915290205483811015610be75760405162461bcd60e51b8152600401610256906115f0565b6000858152602081815260408083206001600160a01b038b8116855292528083208785039055908816825281208054869290610c2490849061165e565b909155505060408051868152602081018690526001600160a01b03808916928a821692918616917fc3d58168c5ae7397731d063d5bbf3d657854427343f4c083240f7aacaa2d0f62910160405180910390a4610c84828888888888610e51565b50505050505050565b6001600160a01b0384163b1561097d5760405163bc197c8160e01b81526001600160a01b0385169063bc197c8190610cd1908990899088908890889060040161146c565b602060405180830381600087803b158015610ceb57600080fd5b505af1925050508015610d1b575060408051601f3d908101601f19168201909252610d1891810190611338565b60015b610dc857610d27611725565b806308c379a01415610d615750610d3c61173d565b80610d475750610d63565b8060405162461bcd60e51b81526004016102569190611550565b505b60405162461bcd60e51b815260206004820152603460248201527f455243313135353a207472616e7366657220746f206e6f6e20455243313135356044820152732932b1b2b4bb32b91034b6b83632b6b2b73a32b960611b6064820152608401610256565b6001600160e01b0319811663bc197c8160e01b14610c845760405162461bcd60e51b815260040161025690611563565b60408051600180825281830190925260609160009190602080830190803683370190505090508281600081518110610e4057634e487b7160e01b600052603260045260246000fd5b602090810291909101015292915050565b6001600160a01b0384163b1561097d5760405163f23a6e6160e01b81526001600160a01b0385169063f23a6e6190610e9590899089908890889088906004016114ca565b602060405180830381600087803b158015610eaf57600080fd5b505af1925050508015610edf575060408051601f3d908101601f19168201909252610edc91810190611338565b60015b610eeb57610d27611725565b6001600160e01b0319811663f23a6e6160e01b14610c845760405162461bcd60e51b815260040161025690611563565b828054610f2790611676565b90600052602060002090601f016020900481019282610f495760008555610f8f565b82601f10610f6257805160ff1916838001178555610f8f565b82800160010185558215610f8f579182015b82811115610f8f578251825591602001919060010190610f74565b50610f9b929150610f9f565b5090565b5b80821115610f9b5760008155600101610fa0565b80356001600160a01b0381168114610fcb57600080fd5b919050565b600082601f830112610fe0578081fd5b81356020610fed8261163a565b604051610ffa82826116b1565b8381528281019150858301600585901b87018401881015611019578586fd5b855b858110156110375781358452928401929084019060010161101b565b5090979650505050505050565b600082601f830112611054578081fd5b813567ffffffffffffffff81111561106e5761106e61170f565b604051611085601f8301601f1916602001826116b1565b818152846020838601011115611099578283fd5b816020850160208301379081016020019190915292915050565b600080604083850312156110c5578182fd5b6110ce83610fb4565b91506110dc60208401610fb4565b90509250929050565b600080600080600060a086880312156110fc578081fd5b61110586610fb4565b945061111360208701610fb4565b9350604086013567ffffffffffffffff8082111561112f578283fd5b61113b89838a01610fd0565b94506060880135915080821115611150578283fd5b61115c89838a01610fd0565b93506080880135915080821115611171578283fd5b5061117e88828901611044565b9150509295509295909350565b600080600080600060a086880312156111a2578081fd5b6111ab86610fb4565b94506111b960208701610fb4565b93506040860135925060608601359150608086013567ffffffffffffffff8111156111e2578182fd5b61117e88828901611044565b60008060408385031215611200578182fd5b61120983610fb4565b91506020830135801515811461121d578182fd5b809150509250929050565b6000806040838503121561123a578182fd5b61124383610fb4565b946020939093013593505050565b60008060408385031215611263578182fd5b823567ffffffffffffffff8082111561127a578384fd5b818501915085601f83011261128d578384fd5b8135602061129a8261163a565b6040516112a782826116b1565b8381528281019150858301600585901b870184018b10156112c6578889fd5b8896505b848710156112ef576112db81610fb4565b8352600196909601959183019183016112ca565b5096505086013592505080821115611305578283fd5b5061131285828601610fd0565b9150509250929050565b60006020828403121561132d578081fd5b8135610580816117c7565b600060208284031215611349578081fd5b8151610580816117c7565b600060208284031215611365578081fd5b5035919050565b6000806040838503121561137e578182fd5b82359150602083013567ffffffffffffffff81111561139b578182fd5b61131285828601611044565b600080604083850312156113b9578182fd5b823563ffffffff811681146113cc578283fd5b9150602083013567ffffffffffffffff81111561139b578182fd5b6000815180845260208085019450808401835b83811015611416578151875295820195908201906001016113fa565b509495945050505050565b60008151808452815b818110156114465760208185018101518683018201520161142a565b818111156114575782602083870101525b50601f01601f19169290920160200192915050565b6001600160a01b0386811682528516602082015260a060408201819052600090611498908301866113e7565b82810360608401526114aa81866113e7565b905082810360808401526114be8185611421565b98975050505050505050565b6001600160a01b03868116825285166020820152604081018490526060810183905260a06080820181905260009061150490830184611421565b979650505050505050565b60208152600061058060208301846113e7565b60408152600061153560408301856113e7565b828103602084015261154781856113e7565b95945050505050565b6020815260006105806020830184611421565b60208082526028908201527f455243313135353a204552433131353552656365697665722072656a656374656040820152676420746f6b656e7360c01b606082015260800190565b60208082526025908201527f455243313135353a207472616e7366657220746f20746865207a65726f206164604082015264647265737360d81b606082015260800190565b6020808252602a908201527f455243313135353a20696e73756666696369656e742062616c616e636520666f60408201526939103a3930b739b332b960b11b606082015260800190565b600067ffffffffffffffff8211156116545761165461170f565b5060051b60200190565b60008219821115611671576116716116f9565b500190565b600181811c9082168061168a57607f821691505b602082108114156116ab57634e487b7160e01b600052602260045260246000fd5b50919050565b601f8201601f1916810167ffffffffffffffff811182821017156116d7576116d761170f565b6040525050565b60006000198214156116f2576116f26116f9565b5060010190565b634e487b7160e01b600052601160045260246000fd5b634e487b7160e01b600052604160045260246000fd5b600060033d111561173a57600481823e5160e01c5b90565b600060443d101561174b5790565b6040516003193d81016004833e81513d67ffffffffffffffff816024840111818411171561177b57505050505090565b82850191508151818111156117935750505050505090565b843d87010160208285010111156117ad5750505050505090565b6117bc602082860101876116b1565b509095945050505050565b6001600160e01b0319811681146117dd57600080fd5b5056fea26469706673582212204f235e9471b8721c55d57b65aa4245977ed6514ce74018553bb2223a77bc113c64736f6c63430008040033",
  "linkReferences": {},
  "deployedLinkReferences": {}
}