{
    "_format": "hh-sol-artifact-1",
    "contractName": "FanClubNFT",
    "sourceName": "contracts/FanClubNFT.sol",
    "abi": [
        {
            "inputs": [
                {
                    "internalType": "string",
                    "name": "_name",
                    "type": "string"
                },
                {
                    "internalType": "string",
                    "name": "_symbol",
                    "type": "string"
                },
                {
                    "internalType": "address",
                    "name": "marketplaceAddress",
                    "type": "address"
                }
            ],
            "stateMutability": "nonpayable",
            "type": "constructor"
        },
        {
            "anonymous": false,
            "inputs": [
                {
                    "indexed": true,
                    "internalType": "address",
                    "name": "account",
                    "type": "address"
                },
                {
                    "indexed": true,
                    "internalType": "address",
                    "name": "operator",
                    "type": "address"
                },
                {
                    "indexed": false,
                    "internalType": "bool",
                    "name": "approved",
                    "type": "bool"
                }
            ],
            "name": "ApprovalForAll",
            "type": "event"
        },
        {
            "anonymous": false,
            "inputs": [
                {
                    "indexed": true,
                    "internalType": "address",
                    "name": "previousOwner",
                    "type": "address"
                },
                {
                    "indexed": true,
                    "internalType": "address",
                    "name": "newOwner",
                    "type": "address"
                }
            ],
            "name": "OwnershipTransferred",
            "type": "event"
        },
        {
            "anonymous": false,
            "inputs": [
                {
                    "indexed": true,
                    "internalType": "address",
                    "name": "operator",
                    "type": "address"
                },
                {
                    "indexed": true,
                    "internalType": "address",
                    "name": "from",
                    "type": "address"
                },
                {
                    "indexed": true,
                    "internalType": "address",
                    "name": "to",
                    "type": "address"
                },
                {
                    "indexed": false,
                    "internalType": "uint256[]",
                    "name": "ids",
                    "type": "uint256[]"
                },
                {
                    "indexed": false,
                    "internalType": "uint256[]",
                    "name": "values",
                    "type": "uint256[]"
                }
            ],
            "name": "TransferBatch",
            "type": "event"
        },
        {
            "anonymous": false,
            "inputs": [
                {
                    "indexed": true,
                    "internalType": "address",
                    "name": "operator",
                    "type": "address"
                },
                {
                    "indexed": true,
                    "internalType": "address",
                    "name": "from",
                    "type": "address"
                },
                {
                    "indexed": true,
                    "internalType": "address",
                    "name": "to",
                    "type": "address"
                },
                {
                    "indexed": false,
                    "internalType": "uint256",
                    "name": "id",
                    "type": "uint256"
                },
                {
                    "indexed": false,
                    "internalType": "uint256",
                    "name": "value",
                    "type": "uint256"
                }
            ],
            "name": "TransferSingle",
            "type": "event"
        },
        {
            "anonymous": false,
            "inputs": [
                {
                    "indexed": false,
                    "internalType": "string",
                    "name": "value",
                    "type": "string"
                },
                {
                    "indexed": true,
                    "internalType": "uint256",
                    "name": "id",
                    "type": "uint256"
                }
            ],
            "name": "URI",
            "type": "event"
        },
        {
            "inputs": [
                {
                    "internalType": "address",
                    "name": "account",
                    "type": "address"
                },
                {
                    "internalType": "uint256",
                    "name": "id",
                    "type": "uint256"
                }
            ],
            "name": "balanceOf",
            "outputs": [
                {
                    "internalType": "uint256",
                    "name": "",
                    "type": "uint256"
                }
            ],
            "stateMutability": "view",
            "type": "function"
        },
        {
            "inputs": [
                {
                    "internalType": "address[]",
                    "name": "accounts",
                    "type": "address[]"
                },
                {
                    "internalType": "uint256[]",
                    "name": "ids",
                    "type": "uint256[]"
                }
            ],
            "name": "balanceOfBatch",
            "outputs": [
                {
                    "internalType": "uint256[]",
                    "name": "",
                    "type": "uint256[]"
                }
            ],
            "stateMutability": "view",
            "type": "function"
        },
        {
            "inputs": [
                {
                    "internalType": "address",
                    "name": "account",
                    "type": "address"
                },
                {
                    "internalType": "address",
                    "name": "operator",
                    "type": "address"
                }
            ],
            "name": "isApprovedForAll",
            "outputs": [
                {
                    "internalType": "bool",
                    "name": "",
                    "type": "bool"
                }
            ],
            "stateMutability": "view",
            "type": "function"
        },
        {
            "inputs": [
                {
                    "internalType": "uint32",
                    "name": "_amount",
                    "type": "uint32"
                },
                {
                    "internalType": "uint256",
                    "name": "_tokenPrice",
                    "type": "uint256"
                },
                {
                    "internalType": "string",
                    "name": "_tokenURI",
                    "type": "string"
                }
            ],
            "name": "launchNFT",
            "outputs": [
                {
                    "components": [
                        {
                            "internalType": "uint256",
                            "name": "tokenId",
                            "type": "uint256"
                        },
                        {
                            "internalType": "uint32",
                            "name": "totalCount",
                            "type": "uint32"
                        },
                        {
                            "internalType": "uint256",
                            "name": "tokenPrice",
                            "type": "uint256"
                        }
                    ],
                    "internalType": "struct FanClubNFT.TokenInfo",
                    "name": "",
                    "type": "tuple"
                }
            ],
            "stateMutability": "nonpayable",
            "type": "function"
        },
        {
            "inputs": [],
            "name": "name",
            "outputs": [
                {
                    "internalType": "string",
                    "name": "",
                    "type": "string"
                }
            ],
            "stateMutability": "view",
            "type": "function"
        },
        {
            "inputs": [],
            "name": "owner",
            "outputs": [
                {
                    "internalType": "address",
                    "name": "",
                    "type": "address"
                }
            ],
            "stateMutability": "view",
            "type": "function"
        },
        {
            "inputs": [],
            "name": "renounceOwnership",
            "outputs": [],
            "stateMutability": "nonpayable",
            "type": "function"
        },
        {
            "inputs": [
                {
                    "internalType": "address",
                    "name": "from",
                    "type": "address"
                },
                {
                    "internalType": "address",
                    "name": "to",
                    "type": "address"
                },
                {
                    "internalType": "uint256[]",
                    "name": "ids",
                    "type": "uint256[]"
                },
                {
                    "internalType": "uint256[]",
                    "name": "amounts",
                    "type": "uint256[]"
                },
                {
                    "internalType": "bytes",
                    "name": "data",
                    "type": "bytes"
                }
            ],
            "name": "safeBatchTransferFrom",
            "outputs": [],
            "stateMutability": "nonpayable",
            "type": "function"
        },
        {
            "inputs": [
                {
                    "internalType": "address",
                    "name": "from",
                    "type": "address"
                },
                {
                    "internalType": "address",
                    "name": "to",
                    "type": "address"
                },
                {
                    "internalType": "uint256",
                    "name": "id",
                    "type": "uint256"
                },
                {
                    "internalType": "uint256",
                    "name": "amount",
                    "type": "uint256"
                },
                {
                    "internalType": "bytes",
                    "name": "data",
                    "type": "bytes"
                }
            ],
            "name": "safeTransferFrom",
            "outputs": [],
            "stateMutability": "nonpayable",
            "type": "function"
        },
        {
            "inputs": [
                {
                    "internalType": "address",
                    "name": "operator",
                    "type": "address"
                },
                {
                    "internalType": "bool",
                    "name": "approved",
                    "type": "bool"
                }
            ],
            "name": "setApprovalForAll",
            "outputs": [],
            "stateMutability": "nonpayable",
            "type": "function"
        },
        {
            "inputs": [
                {
                    "internalType": "uint256",
                    "name": "tokenId",
                    "type": "uint256"
                },
                {
                    "internalType": "string",
                    "name": "_newURI",
                    "type": "string"
                }
            ],
            "name": "setTokenURI",
            "outputs": [],
            "stateMutability": "nonpayable",
            "type": "function"
        },
        {
            "inputs": [
                {
                    "internalType": "bytes4",
                    "name": "interfaceId",
                    "type": "bytes4"
                }
            ],
            "name": "supportsInterface",
            "outputs": [
                {
                    "internalType": "bool",
                    "name": "",
                    "type": "bool"
                }
            ],
            "stateMutability": "view",
            "type": "function"
        },
        {
            "inputs": [],
            "name": "symbol",
            "outputs": [
                {
                    "internalType": "string",
                    "name": "",
                    "type": "string"
                }
            ],
            "stateMutability": "view",
            "type": "function"
        },
        {
            "inputs": [
                {
                    "internalType": "address",
                    "name": "newOwner",
                    "type": "address"
                }
            ],
            "name": "transferOwnership",
            "outputs": [],
            "stateMutability": "nonpayable",
            "type": "function"
        },
        {
            "inputs": [
                {
                    "internalType": "uint256",
                    "name": "_tokenId",
                    "type": "uint256"
                }
            ],
            "name": "uri",
            "outputs": [
                {
                    "internalType": "string",
                    "name": "",
                    "type": "string"
                }
            ],
            "stateMutability": "view",
            "type": "function"
        }
    ],
    "bytecode": "0x60806040523480156200001157600080fd5b5060405162001e2b38038062001e2b833981016040819052620000349162000283565b6040805160208101909152600081526200004e816200008f565b506200005a33620000a8565b620000668383620000fa565b600680546001600160a01b0319166001600160a01b0392909216919091179055506200035f9050565b8051620000a49060029060208401906200012a565b5050565b600380546001600160a01b038381166001600160a01b0319831681179093556040519116919082907f8be0079c531659141344cd1fd0a4f28419497f9722a3daafe3b4186f6b6457e090600090a35050565b81516200010f9060049060208501906200012a565b508051620001259060059060208401906200012a565b505050565b82805462000138906200030c565b90600052602060002090601f0160209004810192826200015c5760008555620001a7565b82601f106200017757805160ff1916838001178555620001a7565b82800160010185558215620001a7579182015b82811115620001a75782518255916020019190600101906200018a565b50620001b5929150620001b9565b5090565b5b80821115620001b55760008155600101620001ba565b600082601f830112620001e1578081fd5b81516001600160401b0380821115620001fe57620001fe62000349565b604051601f8301601f19908116603f0116810190828211818310171562000229576200022962000349565b8160405283815260209250868385880101111562000245578485fd5b8491505b8382101562000268578582018301518183018401529082019062000249565b838211156200027957848385830101525b9695505050505050565b60008060006060848603121562000298578283fd5b83516001600160401b0380821115620002af578485fd5b620002bd87838801620001d0565b94506020860151915080821115620002d3578384fd5b50620002e286828701620001d0565b604086015190935090506001600160a01b038116811462000301578182fd5b809150509250925092565b600181811c908216806200032157607f821691505b602082108114156200034357634e487b7160e01b600052602260045260246000fd5b50919050565b634e487b7160e01b600052604160045260246000fd5b611abc806200036f6000396000f3fe608060405234801561001057600080fd5b50600436106100f45760003560e01c8063715018a611610097578063a22cb46511610066578063a22cb46514610218578063e985e9c51461022b578063f242432a14610267578063f2fde38b1461027a57600080fd5b8063715018a6146101b25780638da5cb5b146101ba5780638f14d81f146101d557806395d89b411461021057600080fd5b80630e89341c116100d35780630e89341c14610157578063162094c41461016a5780632eb2c2d61461017f5780634e1273f41461019257600080fd5b8062fdd58e146100f957806301ffc9a71461011f57806306fdde0314610142575b600080fd5b61010c61010736600461147d565b61028d565b6040519081526020015b60405180910390f35b61013261012d366004611571565b610324565b6040519015158152602001610116565b61014a610376565b60405161011691906117c4565b61014a6101653660046115a9565b610404565b61017d6101783660046115c1565b6104a6565b005b61017d61018d36600461133a565b610553565b6101a56101a03660046114a6565b6105ea565b6040516101169190611783565b61017d61074c565b6003546040516001600160a01b039091168152602001610116565b6101e86101e33660046115fc565b610782565b604080518251815260208084015163ffffffff16908201529181015190820152606001610116565b61014a610830565b61017d610226366004611443565b61083d565b610132610239366004611308565b6001600160a01b03918216600090815260016020908152604080832093909416825291909152205460ff1690565b61017d6102753660046113e0565b61084c565b61017d6102883660046112e7565b6108d3565b60006001600160a01b0383166102fe5760405162461bcd60e51b815260206004820152602b60248201527f455243313135353a2062616c616e636520717565727920666f7220746865207a60448201526a65726f206164647265737360a81b60648201526084015b60405180910390fd5b506000908152602081815260408083206001600160a01b03949094168352929052205490565b60006001600160e01b03198216636cdb3d1360e11b148061035557506001600160e01b031982166303a24d0760e21b145b8061037057506301ffc9a760e01b6001600160e01b03198316145b92915050565b600480546103839061191f565b80601f01602080910402602001604051908101604052809291908181526020018280546103af9061191f565b80156103fc5780601f106103d1576101008083540402835291602001916103fc565b820191906000526020600020905b8154815290600101906020018083116103df57829003601f168201915b505050505081565b60008181526008602052604090208054606091906104219061191f565b80601f016020809104026020016040519081016040528092919081815260200182805461044d9061191f565b801561049a5780601f1061046f5761010080835404028352916020019161049a565b820191906000526020600020905b81548152906001019060200180831161047d57829003601f168201915b50505050509050919050565b6003546001600160a01b031633146104d05760405162461bcd60e51b81526004016102f5906118ae565b600082815260086020526040902080546104e99061191f565b15905061052f5760405162461bcd60e51b815260206004820152601460248201527343616e6e6f74207365742075726920747769636560601b60448201526064016102f5565b6000828152600860209081526040909120825161054e9284019061114f565b505050565b6001600160a01b03851633148061056f575061056f8533610239565b6105d65760405162461bcd60e51b815260206004820152603260248201527f455243313135353a207472616e736665722063616c6c6572206973206e6f74206044820152711bdddb995c881b9bdc88185c1c1c9bdd995960721b60648201526084016102f5565b6105e3858585858561096e565b5050505050565b6060815183511461064f5760405162461bcd60e51b815260206004820152602960248201527f455243313135353a206163636f756e747320616e6420696473206c656e677468604482015268040dad2e6dac2e8c6d60bb1b60648201526084016102f5565b6000835167ffffffffffffffff81111561067957634e487b7160e01b600052604160045260246000fd5b6040519080825280602002602001820160405280156106a2578160200160208202803683370190505b50905060005b8451811015610744576107098582815181106106d457634e487b7160e01b600052603260045260246000fd5b60200260200101518583815181106106fc57634e487b7160e01b600052603260045260246000fd5b602002602001015161028d565b82828151811061072957634e487b7160e01b600052603260045260246000fd5b602090810291909101015261073d81611987565b90506106a8565b509392505050565b6003546001600160a01b031633146107765760405162461bcd60e51b81526004016102f5906118ae565b6107806000610b67565b565b6107ac604051806060016040528060008152602001600063ffffffff168152602001600081525090565b6107ba600780546001019055565b60006107c560075490565b90506107e833828763ffffffff1660405180602001604052806000815250610bb9565b6107f281846104a6565b600654610809906001600160a01b0316600161083d565b6040805160608101825291825263ffffffff86166020830152810184905290509392505050565b600580546103839061191f565b610848338383610cc3565b5050565b6001600160a01b03851633148061086857506108688533610239565b6108c65760405162461bcd60e51b815260206004820152602960248201527f455243313135353a2063616c6c6572206973206e6f74206f776e6572206e6f7260448201526808185c1c1c9bdd995960ba1b60648201526084016102f5565b6105e38585858585610da4565b6003546001600160a01b031633146108fd5760405162461bcd60e51b81526004016102f5906118ae565b6001600160a01b0381166109625760405162461bcd60e51b815260206004820152602660248201527f4f776e61626c653a206e6577206f776e657220697320746865207a65726f206160448201526564647265737360d01b60648201526084016102f5565b61096b81610b67565b50565b81518351146109d05760405162461bcd60e51b815260206004820152602860248201527f455243313135353a2069647320616e6420616d6f756e7473206c656e677468206044820152670dad2e6dac2e8c6d60c31b60648201526084016102f5565b6001600160a01b0384166109f65760405162461bcd60e51b81526004016102f59061181f565b3360005b8451811015610af9576000858281518110610a2557634e487b7160e01b600052603260045260246000fd5b602002602001015190506000858381518110610a5157634e487b7160e01b600052603260045260246000fd5b602090810291909101810151600084815280835260408082206001600160a01b038e168352909352919091205490915081811015610aa15760405162461bcd60e51b81526004016102f590611864565b6000838152602081815260408083206001600160a01b038e8116855292528083208585039055908b16825281208054849290610ade908490611907565b9250508190555050505080610af290611987565b90506109fa565b50846001600160a01b0316866001600160a01b0316826001600160a01b03167f4a39dc06d4c0dbc64b70af90fd698a233a518aa5d07e595d983b8c0526c8f7fb8787604051610b49929190611796565b60405180910390a4610b5f818787878787610ec1565b505050505050565b600380546001600160a01b038381166001600160a01b0319831681179093556040519116919082907f8be0079c531659141344cd1fd0a4f28419497f9722a3daafe3b4186f6b6457e090600090a35050565b6001600160a01b038416610c195760405162461bcd60e51b815260206004820152602160248201527f455243313135353a206d696e7420746f20746865207a65726f206164647265736044820152607360f81b60648201526084016102f5565b33610c3381600087610c2a8861102c565b6105e38861102c565b6000848152602081815260408083206001600160a01b038916845290915281208054859290610c63908490611907565b909155505060408051858152602081018590526001600160a01b0380881692600092918516917fc3d58168c5ae7397731d063d5bbf3d657854427343f4c083240f7aacaa2d0f62910160405180910390a46105e381600087878787611085565b816001600160a01b0316836001600160a01b03161415610d375760405162461bcd60e51b815260206004820152602960248201527f455243313135353a2073657474696e6720617070726f76616c20737461747573604482015268103337b91039b2b63360b91b60648201526084016102f5565b6001600160a01b03838116600081815260016020908152604080832094871680845294825291829020805460ff191686151590811790915591519182527f17307eab39ab6107e8899845ad3d59bd9653f200f220920489ca2b5937696c31910160405180910390a3505050565b6001600160a01b038416610dca5760405162461bcd60e51b81526004016102f59061181f565b33610dda818787610c2a8861102c565b6000848152602081815260408083206001600160a01b038a16845290915290205483811015610e1b5760405162461bcd60e51b81526004016102f590611864565b6000858152602081815260408083206001600160a01b038b8116855292528083208785039055908816825281208054869290610e58908490611907565b909155505060408051868152602081018690526001600160a01b03808916928a821692918616917fc3d58168c5ae7397731d063d5bbf3d657854427343f4c083240f7aacaa2d0f62910160405180910390a4610eb8828888888888611085565b50505050505050565b6001600160a01b0384163b15610b5f5760405163bc197c8160e01b81526001600160a01b0385169063bc197c8190610f0590899089908890889088906004016116e0565b602060405180830381600087803b158015610f1f57600080fd5b505af1925050508015610f4f575060408051601f3d908101601f19168201909252610f4c9181019061158d565b60015b610ffc57610f5b6119ce565b806308c379a01415610f955750610f706119e6565b80610f7b5750610f97565b8060405162461bcd60e51b81526004016102f591906117c4565b505b60405162461bcd60e51b815260206004820152603460248201527f455243313135353a207472616e7366657220746f206e6f6e20455243313135356044820152732932b1b2b4bb32b91034b6b83632b6b2b73a32b960611b60648201526084016102f5565b6001600160e01b0319811663bc197c8160e01b14610eb85760405162461bcd60e51b81526004016102f5906117d7565b6040805160018082528183019092526060916000919060208083019080368337019050509050828160008151811061107457634e487b7160e01b600052603260045260246000fd5b602090810291909101015292915050565b6001600160a01b0384163b15610b5f5760405163f23a6e6160e01b81526001600160a01b0385169063f23a6e61906110c9908990899088908890889060040161173e565b602060405180830381600087803b1580156110e357600080fd5b505af1925050508015611113575060408051601f3d908101601f191682019092526111109181019061158d565b60015b61111f57610f5b6119ce565b6001600160e01b0319811663f23a6e6160e01b14610eb85760405162461bcd60e51b81526004016102f5906117d7565b82805461115b9061191f565b90600052602060002090601f01602090048101928261117d57600085556111c3565b82601f1061119657805160ff19168380011785556111c3565b828001600101855582156111c3579182015b828111156111c35782518255916020019190600101906111a8565b506111cf9291506111d3565b5090565b5b808211156111cf57600081556001016111d4565b80356001600160a01b03811681146111ff57600080fd5b919050565b600082601f830112611214578081fd5b81356020611221826118e3565b60405161122e828261195a565b8381528281019150858301600585901b8701840188101561124d578586fd5b855b8581101561126b5781358452928401929084019060010161124f565b5090979650505050505050565b600082601f830112611288578081fd5b813567ffffffffffffffff8111156112a2576112a26119b8565b6040516112b9601f8301601f19166020018261195a565b8181528460208386010111156112cd578283fd5b816020850160208301379081016020019190915292915050565b6000602082840312156112f8578081fd5b611301826111e8565b9392505050565b6000806040838503121561131a578081fd5b611323836111e8565b9150611331602084016111e8565b90509250929050565b600080600080600060a08688031215611351578081fd5b61135a866111e8565b9450611368602087016111e8565b9350604086013567ffffffffffffffff80821115611384578283fd5b61139089838a01611204565b945060608801359150808211156113a5578283fd5b6113b189838a01611204565b935060808801359150808211156113c6578283fd5b506113d388828901611278565b9150509295509295909350565b600080600080600060a086880312156113f7578081fd5b611400866111e8565b945061140e602087016111e8565b93506040860135925060608601359150608086013567ffffffffffffffff811115611437578182fd5b6113d388828901611278565b60008060408385031215611455578182fd5b61145e836111e8565b915060208301358015158114611472578182fd5b809150509250929050565b6000806040838503121561148f578182fd5b611498836111e8565b946020939093013593505050565b600080604083850312156114b8578182fd5b823567ffffffffffffffff808211156114cf578384fd5b818501915085601f8301126114e2578384fd5b813560206114ef826118e3565b6040516114fc828261195a565b8381528281019150858301600585901b870184018b101561151b578889fd5b8896505b8487101561154457611530816111e8565b83526001969096019591830191830161151f565b509650508601359250508082111561155a578283fd5b5061156785828601611204565b9150509250929050565b600060208284031215611582578081fd5b813561130181611a70565b60006020828403121561159e578081fd5b815161130181611a70565b6000602082840312156115ba578081fd5b5035919050565b600080604083850312156115d3578182fd5b82359150602083013567ffffffffffffffff8111156115f0578182fd5b61156785828601611278565b600080600060608486031215611610578081fd5b833563ffffffff81168114611623578182fd5b925060208401359150604084013567ffffffffffffffff811115611645578182fd5b61165186828701611278565b9150509250925092565b6000815180845260208085019450808401835b8381101561168a5781518752958201959082019060010161166e565b509495945050505050565b60008151808452815b818110156116ba5760208185018101518683018201520161169e565b818111156116cb5782602083870101525b50601f01601f19169290920160200192915050565b6001600160a01b0386811682528516602082015260a06040820181905260009061170c9083018661165b565b828103606084015261171e818661165b565b905082810360808401526117328185611695565b98975050505050505050565b6001600160a01b03868116825285166020820152604081018490526060810183905260a06080820181905260009061177890830184611695565b979650505050505050565b602081526000611301602083018461165b565b6040815260006117a9604083018561165b565b82810360208401526117bb818561165b565b95945050505050565b6020815260006113016020830184611695565b60208082526028908201527f455243313135353a204552433131353552656365697665722072656a656374656040820152676420746f6b656e7360c01b606082015260800190565b60208082526025908201527f455243313135353a207472616e7366657220746f20746865207a65726f206164604082015264647265737360d81b606082015260800190565b6020808252602a908201527f455243313135353a20696e73756666696369656e742062616c616e636520666f60408201526939103a3930b739b332b960b11b606082015260800190565b6020808252818101527f4f776e61626c653a2063616c6c6572206973206e6f7420746865206f776e6572604082015260600190565b600067ffffffffffffffff8211156118fd576118fd6119b8565b5060051b60200190565b6000821982111561191a5761191a6119a2565b500190565b600181811c9082168061193357607f821691505b6020821081141561195457634e487b7160e01b600052602260045260246000fd5b50919050565b601f8201601f1916810167ffffffffffffffff81118282101715611980576119806119b8565b6040525050565b600060001982141561199b5761199b6119a2565b5060010190565b634e487b7160e01b600052601160045260246000fd5b634e487b7160e01b600052604160045260246000fd5b600060033d11156119e357600481823e5160e01c5b90565b600060443d10156119f45790565b6040516003193d81016004833e81513d67ffffffffffffffff8160248401118184111715611a2457505050505090565b8285019150815181811115611a3c5750505050505090565b843d8701016020828501011115611a565750505050505090565b611a656020828601018761195a565b509095945050505050565b6001600160e01b03198116811461096b57600080fdfea26469706673582212208394137f135ac128e41181d239397e4f80e4631b01af6c917e720548ce95aab464736f6c63430008040033",
    "linkReferences": {},
    "deployedLinkReferences": {}
}