{
  "_format": "hh-sol-artifact-1",
  "contractName": "FanClubNFT",
  "sourceName": "contracts/FanClubNFT.sol",
  "abi": [
    {
      "inputs": [
        {
          "internalType": "string",
          "name": "_name",
          "type": "string"
        },
        {
          "internalType": "string",
          "name": "_symbol",
          "type": "string"
        },
        {
          "internalType": "address",
          "name": "marketplaceAddress",
          "type": "address"
        }
      ],
      "stateMutability": "nonpayable",
      "type": "constructor"
    },
    {
      "anonymous": false,
      "inputs": [
        {
          "indexed": true,
          "internalType": "address",
          "name": "account",
          "type": "address"
        },
        {
          "indexed": true,
          "internalType": "address",
          "name": "operator",
          "type": "address"
        },
        {
          "indexed": false,
          "internalType": "bool",
          "name": "approved",
          "type": "bool"
        }
      ],
      "name": "ApprovalForAll",
      "type": "event"
    },
    {
      "anonymous": false,
      "inputs": [
        {
          "indexed": true,
          "internalType": "address",
          "name": "previousOwner",
          "type": "address"
        },
        {
          "indexed": true,
          "internalType": "address",
          "name": "newOwner",
          "type": "address"
        }
      ],
      "name": "OwnershipTransferred",
      "type": "event"
    },
    {
      "anonymous": false,
      "inputs": [
        {
          "indexed": true,
          "internalType": "address",
          "name": "operator",
          "type": "address"
        },
        {
          "indexed": true,
          "internalType": "address",
          "name": "from",
          "type": "address"
        },
        {
          "indexed": true,
          "internalType": "address",
          "name": "to",
          "type": "address"
        },
        {
          "indexed": false,
          "internalType": "uint256[]",
          "name": "ids",
          "type": "uint256[]"
        },
        {
          "indexed": false,
          "internalType": "uint256[]",
          "name": "values",
          "type": "uint256[]"
        }
      ],
      "name": "TransferBatch",
      "type": "event"
    },
    {
      "anonymous": false,
      "inputs": [
        {
          "indexed": true,
          "internalType": "address",
          "name": "operator",
          "type": "address"
        },
        {
          "indexed": true,
          "internalType": "address",
          "name": "from",
          "type": "address"
        },
        {
          "indexed": true,
          "internalType": "address",
          "name": "to",
          "type": "address"
        },
        {
          "indexed": false,
          "internalType": "uint256",
          "name": "id",
          "type": "uint256"
        },
        {
          "indexed": false,
          "internalType": "uint256",
          "name": "value",
          "type": "uint256"
        }
      ],
      "name": "TransferSingle",
      "type": "event"
    },
    {
      "anonymous": false,
      "inputs": [
        {
          "indexed": false,
          "internalType": "string",
          "name": "value",
          "type": "string"
        },
        {
          "indexed": true,
          "internalType": "uint256",
          "name": "id",
          "type": "uint256"
        }
      ],
      "name": "URI",
      "type": "event"
    },
    {
      "inputs": [
        {
          "internalType": "address",
          "name": "account",
          "type": "address"
        },
        {
          "internalType": "uint256",
          "name": "id",
          "type": "uint256"
        }
      ],
      "name": "balanceOf",
      "outputs": [
        {
          "internalType": "uint256",
          "name": "",
          "type": "uint256"
        }
      ],
      "stateMutability": "view",
      "type": "function"
    },
    {
      "inputs": [
        {
          "internalType": "address[]",
          "name": "accounts",
          "type": "address[]"
        },
        {
          "internalType": "uint256[]",
          "name": "ids",
          "type": "uint256[]"
        }
      ],
      "name": "balanceOfBatch",
      "outputs": [
        {
          "internalType": "uint256[]",
          "name": "",
          "type": "uint256[]"
        }
      ],
      "stateMutability": "view",
      "type": "function"
    },
    {
      "inputs": [
        {
          "internalType": "address",
          "name": "account",
          "type": "address"
        },
        {
          "internalType": "address",
          "name": "operator",
          "type": "address"
        }
      ],
      "name": "isApprovedForAll",
      "outputs": [
        {
          "internalType": "bool",
          "name": "",
          "type": "bool"
        }
      ],
      "stateMutability": "view",
      "type": "function"
    },
    {
      "inputs": [
        {
          "internalType": "uint32",
          "name": "_amount",
          "type": "uint32"
        },
        {
          "internalType": "string",
          "name": "_tokenURI",
          "type": "string"
        }
      ],
      "name": "launchNFT",
      "outputs": [
        {
          "internalType": "uint256",
          "name": "",
          "type": "uint256"
        }
      ],
      "stateMutability": "nonpayable",
      "type": "function"
    },
    {
      "inputs": [],
      "name": "name",
      "outputs": [
        {
          "internalType": "string",
          "name": "",
          "type": "string"
        }
      ],
      "stateMutability": "view",
      "type": "function"
    },
    {
      "inputs": [],
      "name": "owner",
      "outputs": [
        {
          "internalType": "address",
          "name": "",
          "type": "address"
        }
      ],
      "stateMutability": "view",
      "type": "function"
    },
    {
      "inputs": [],
      "name": "renounceOwnership",
      "outputs": [],
      "stateMutability": "nonpayable",
      "type": "function"
    },
    {
      "inputs": [
        {
          "internalType": "address",
          "name": "from",
          "type": "address"
        },
        {
          "internalType": "address",
          "name": "to",
          "type": "address"
        },
        {
          "internalType": "uint256[]",
          "name": "ids",
          "type": "uint256[]"
        },
        {
          "internalType": "uint256[]",
          "name": "amounts",
          "type": "uint256[]"
        },
        {
          "internalType": "bytes",
          "name": "data",
          "type": "bytes"
        }
      ],
      "name": "safeBatchTransferFrom",
      "outputs": [],
      "stateMutability": "nonpayable",
      "type": "function"
    },
    {
      "inputs": [
        {
          "internalType": "address",
          "name": "from",
          "type": "address"
        },
        {
          "internalType": "address",
          "name": "to",
          "type": "address"
        },
        {
          "internalType": "uint256",
          "name": "id",
          "type": "uint256"
        },
        {
          "internalType": "uint256",
          "name": "amount",
          "type": "uint256"
        },
        {
          "internalType": "bytes",
          "name": "data",
          "type": "bytes"
        }
      ],
      "name": "safeTransferFrom",
      "outputs": [],
      "stateMutability": "nonpayable",
      "type": "function"
    },
    {
      "inputs": [
        {
          "internalType": "address",
          "name": "operator",
          "type": "address"
        },
        {
          "internalType": "bool",
          "name": "approved",
          "type": "bool"
        }
      ],
      "name": "setApprovalForAll",
      "outputs": [],
      "stateMutability": "nonpayable",
      "type": "function"
    },
    {
      "inputs": [
        {
          "internalType": "uint256",
          "name": "tokenId",
          "type": "uint256"
        },
        {
          "internalType": "string",
          "name": "_newURI",
          "type": "string"
        }
      ],
      "name": "setTokenURI",
      "outputs": [],
      "stateMutability": "nonpayable",
      "type": "function"
    },
    {
      "inputs": [
        {
          "internalType": "bytes4",
          "name": "interfaceId",
          "type": "bytes4"
        }
      ],
      "name": "supportsInterface",
      "outputs": [
        {
          "internalType": "bool",
          "name": "",
          "type": "bool"
        }
      ],
      "stateMutability": "view",
      "type": "function"
    },
    {
      "inputs": [],
      "name": "symbol",
      "outputs": [
        {
          "internalType": "string",
          "name": "",
          "type": "string"
        }
      ],
      "stateMutability": "view",
      "type": "function"
    },
    {
      "inputs": [
        {
          "internalType": "address",
          "name": "newOwner",
          "type": "address"
        }
      ],
      "name": "transferOwnership",
      "outputs": [],
      "stateMutability": "nonpayable",
      "type": "function"
    },
    {
      "inputs": [
        {
          "internalType": "uint256",
          "name": "_tokenId",
          "type": "uint256"
        }
      ],
      "name": "uri",
      "outputs": [
        {
          "internalType": "string",
          "name": "",
          "type": "string"
        }
      ],
      "stateMutability": "view",
      "type": "function"
    }
  ],
  "bytecode": "0x60806040523480156200001157600080fd5b5060405162001d9538038062001d95833981016040819052620000349162000283565b6040805160208101909152600081526200004e816200008f565b506200005a33620000a8565b620000668383620000fa565b600680546001600160a01b0319166001600160a01b0392909216919091179055506200035f9050565b8051620000a49060029060208401906200012a565b5050565b600380546001600160a01b038381166001600160a01b0319831681179093556040519116919082907f8be0079c531659141344cd1fd0a4f28419497f9722a3daafe3b4186f6b6457e090600090a35050565b81516200010f9060049060208501906200012a565b508051620001259060059060208401906200012a565b505050565b82805462000138906200030c565b90600052602060002090601f0160209004810192826200015c5760008555620001a7565b82601f106200017757805160ff1916838001178555620001a7565b82800160010185558215620001a7579182015b82811115620001a75782518255916020019190600101906200018a565b50620001b5929150620001b9565b5090565b5b80821115620001b55760008155600101620001ba565b600082601f830112620001e1578081fd5b81516001600160401b0380821115620001fe57620001fe62000349565b604051601f8301601f19908116603f0116810190828211818310171562000229576200022962000349565b8160405283815260209250868385880101111562000245578485fd5b8491505b8382101562000268578582018301518183018401529082019062000249565b838211156200027957848385830101525b9695505050505050565b60008060006060848603121562000298578283fd5b83516001600160401b0380821115620002af578485fd5b620002bd87838801620001d0565b94506020860151915080821115620002d3578384fd5b50620002e286828701620001d0565b604086015190935090506001600160a01b038116811462000301578182fd5b809150509250925092565b600181811c908216806200032157607f821691505b602082108114156200034357634e487b7160e01b600052602260045260246000fd5b50919050565b634e487b7160e01b600052604160045260246000fd5b611a26806200036f6000396000f3fe608060405234801561001057600080fd5b50600436106100f45760003560e01c80634e1273f411610097578063a22cb46511610066578063a22cb465146101f0578063e985e9c514610203578063f242432a1461023f578063f2fde38b1461025257600080fd5b80634e1273f4146101a5578063715018a6146101c55780638da5cb5b146101cd57806395d89b41146101e857600080fd5b80630e89341c116100d35780630e89341c14610157578063162094c41461016a5780632eb2c2d61461017f57806341f3def61461019257600080fd5b8062fdd58e146100f957806301ffc9a71461011f57806306fdde0314610142575b600080fd5b61010c610107366004611406565b610265565b6040519081526020015b60405180910390f35b61013261012d3660046114fa565b6102fc565b6040519015158152602001610116565b61014a61034e565b604051610116919061172e565b61014a610165366004611532565b6103dc565b61017d61017836600461154a565b61047e565b005b61017d61018d3660046112c3565b61052b565b61010c6101a0366004611585565b6105c2565b6101b86101b336600461142f565b610628565b60405161011691906116ed565b61017d61078a565b6003546040516001600160a01b039091168152602001610116565b61014a6107c0565b61017d6101fe3660046113cc565b6107cd565b610132610211366004611291565b6001600160a01b03918216600090815260016020908152604080832093909416825291909152205460ff1690565b61017d61024d366004611369565b6107dc565b61017d610260366004611277565b610863565b60006001600160a01b0383166102d65760405162461bcd60e51b815260206004820152602b60248201527f455243313135353a2062616c616e636520717565727920666f7220746865207a60448201526a65726f206164647265737360a81b60648201526084015b60405180910390fd5b506000908152602081815260408083206001600160a01b03949094168352929052205490565b60006001600160e01b03198216636cdb3d1360e11b148061032d57506001600160e01b031982166303a24d0760e21b145b8061034857506301ffc9a760e01b6001600160e01b03198316145b92915050565b6004805461035b90611889565b80601f016020809104026020016040519081016040528092919081815260200182805461038790611889565b80156103d45780601f106103a9576101008083540402835291602001916103d4565b820191906000526020600020905b8154815290600101906020018083116103b757829003601f168201915b505050505081565b60008181526008602052604090208054606091906103f990611889565b80601f016020809104026020016040519081016040528092919081815260200182805461042590611889565b80156104725780601f1061044757610100808354040283529160200191610472565b820191906000526020600020905b81548152906001019060200180831161045557829003601f168201915b50505050509050919050565b6003546001600160a01b031633146104a85760405162461bcd60e51b81526004016102cd90611818565b600082815260086020526040902080546104c190611889565b1590506105075760405162461bcd60e51b815260206004820152601460248201527343616e6e6f74207365742075726920747769636560601b60448201526064016102cd565b60008281526008602090815260409091208251610526928401906110df565b505050565b6001600160a01b03851633148061054757506105478533610211565b6105ae5760405162461bcd60e51b815260206004820152603260248201527f455243313135353a207472616e736665722063616c6c6572206973206e6f74206044820152711bdddb995c881b9bdc88185c1c1c9bdd995960721b60648201526084016102cd565b6105bb85858585856108fe565b5050505050565b60006105d2600780546001019055565b60006105dd60075490565b905061060033828663ffffffff1660405180602001604052806000815250610af7565b61060a818461047e565b600654610621906001600160a01b031660016107cd565b9392505050565b6060815183511461068d5760405162461bcd60e51b815260206004820152602960248201527f455243313135353a206163636f756e747320616e6420696473206c656e677468604482015268040dad2e6dac2e8c6d60bb1b60648201526084016102cd565b6000835167ffffffffffffffff8111156106b757634e487b7160e01b600052604160045260246000fd5b6040519080825280602002602001820160405280156106e0578160200160208202803683370190505b50905060005b84518110156107825761074785828151811061071257634e487b7160e01b600052603260045260246000fd5b602002602001015185838151811061073a57634e487b7160e01b600052603260045260246000fd5b6020026020010151610265565b82828151811061076757634e487b7160e01b600052603260045260246000fd5b602090810291909101015261077b816118f1565b90506106e6565b509392505050565b6003546001600160a01b031633146107b45760405162461bcd60e51b81526004016102cd90611818565b6107be6000610c01565b565b6005805461035b90611889565b6107d8338383610c53565b5050565b6001600160a01b0385163314806107f857506107f88533610211565b6108565760405162461bcd60e51b815260206004820152602960248201527f455243313135353a2063616c6c6572206973206e6f74206f776e6572206e6f7260448201526808185c1c1c9bdd995960ba1b60648201526084016102cd565b6105bb8585858585610d34565b6003546001600160a01b0316331461088d5760405162461bcd60e51b81526004016102cd90611818565b6001600160a01b0381166108f25760405162461bcd60e51b815260206004820152602660248201527f4f776e61626c653a206e6577206f776e657220697320746865207a65726f206160448201526564647265737360d01b60648201526084016102cd565b6108fb81610c01565b50565b81518351146109605760405162461bcd60e51b815260206004820152602860248201527f455243313135353a2069647320616e6420616d6f756e7473206c656e677468206044820152670dad2e6dac2e8c6d60c31b60648201526084016102cd565b6001600160a01b0384166109865760405162461bcd60e51b81526004016102cd90611789565b3360005b8451811015610a895760008582815181106109b557634e487b7160e01b600052603260045260246000fd5b6020026020010151905060008583815181106109e157634e487b7160e01b600052603260045260246000fd5b602090810291909101810151600084815280835260408082206001600160a01b038e168352909352919091205490915081811015610a315760405162461bcd60e51b81526004016102cd906117ce565b6000838152602081815260408083206001600160a01b038e8116855292528083208585039055908b16825281208054849290610a6e908490611871565b9250508190555050505080610a82906118f1565b905061098a565b50846001600160a01b0316866001600160a01b0316826001600160a01b03167f4a39dc06d4c0dbc64b70af90fd698a233a518aa5d07e595d983b8c0526c8f7fb8787604051610ad9929190611700565b60405180910390a4610aef818787878787610e51565b505050505050565b6001600160a01b038416610b575760405162461bcd60e51b815260206004820152602160248201527f455243313135353a206d696e7420746f20746865207a65726f206164647265736044820152607360f81b60648201526084016102cd565b33610b7181600087610b6888610fbc565b6105bb88610fbc565b6000848152602081815260408083206001600160a01b038916845290915281208054859290610ba1908490611871565b909155505060408051858152602081018590526001600160a01b0380881692600092918516917fc3d58168c5ae7397731d063d5bbf3d657854427343f4c083240f7aacaa2d0f62910160405180910390a46105bb81600087878787611015565b600380546001600160a01b038381166001600160a01b0319831681179093556040519116919082907f8be0079c531659141344cd1fd0a4f28419497f9722a3daafe3b4186f6b6457e090600090a35050565b816001600160a01b0316836001600160a01b03161415610cc75760405162461bcd60e51b815260206004820152602960248201527f455243313135353a2073657474696e6720617070726f76616c20737461747573604482015268103337b91039b2b63360b91b60648201526084016102cd565b6001600160a01b03838116600081815260016020908152604080832094871680845294825291829020805460ff191686151590811790915591519182527f17307eab39ab6107e8899845ad3d59bd9653f200f220920489ca2b5937696c31910160405180910390a3505050565b6001600160a01b038416610d5a5760405162461bcd60e51b81526004016102cd90611789565b33610d6a818787610b6888610fbc565b6000848152602081815260408083206001600160a01b038a16845290915290205483811015610dab5760405162461bcd60e51b81526004016102cd906117ce565b6000858152602081815260408083206001600160a01b038b8116855292528083208785039055908816825281208054869290610de8908490611871565b909155505060408051868152602081018690526001600160a01b03808916928a821692918616917fc3d58168c5ae7397731d063d5bbf3d657854427343f4c083240f7aacaa2d0f62910160405180910390a4610e48828888888888611015565b50505050505050565b6001600160a01b0384163b15610aef5760405163bc197c8160e01b81526001600160a01b0385169063bc197c8190610e95908990899088908890889060040161164a565b602060405180830381600087803b158015610eaf57600080fd5b505af1925050508015610edf575060408051601f3d908101601f19168201909252610edc91810190611516565b60015b610f8c57610eeb611938565b806308c379a01415610f255750610f00611950565b80610f0b5750610f27565b8060405162461bcd60e51b81526004016102cd919061172e565b505b60405162461bcd60e51b815260206004820152603460248201527f455243313135353a207472616e7366657220746f206e6f6e20455243313135356044820152732932b1b2b4bb32b91034b6b83632b6b2b73a32b960611b60648201526084016102cd565b6001600160e01b0319811663bc197c8160e01b14610e485760405162461bcd60e51b81526004016102cd90611741565b6040805160018082528183019092526060916000919060208083019080368337019050509050828160008151811061100457634e487b7160e01b600052603260045260246000fd5b602090810291909101015292915050565b6001600160a01b0384163b15610aef5760405163f23a6e6160e01b81526001600160a01b0385169063f23a6e619061105990899089908890889088906004016116a8565b602060405180830381600087803b15801561107357600080fd5b505af19250505080156110a3575060408051601f3d908101601f191682019092526110a091810190611516565b60015b6110af57610eeb611938565b6001600160e01b0319811663f23a6e6160e01b14610e485760405162461bcd60e51b81526004016102cd90611741565b8280546110eb90611889565b90600052602060002090601f01602090048101928261110d5760008555611153565b82601f1061112657805160ff1916838001178555611153565b82800160010185558215611153579182015b82811115611153578251825591602001919060010190611138565b5061115f929150611163565b5090565b5b8082111561115f5760008155600101611164565b80356001600160a01b038116811461118f57600080fd5b919050565b600082601f8301126111a4578081fd5b813560206111b18261184d565b6040516111be82826118c4565b8381528281019150858301600585901b870184018810156111dd578586fd5b855b858110156111fb578135845292840192908401906001016111df565b5090979650505050505050565b600082601f830112611218578081fd5b813567ffffffffffffffff81111561123257611232611922565b604051611249601f8301601f1916602001826118c4565b81815284602083860101111561125d578283fd5b816020850160208301379081016020019190915292915050565b600060208284031215611288578081fd5b61062182611178565b600080604083850312156112a3578081fd5b6112ac83611178565b91506112ba60208401611178565b90509250929050565b600080600080600060a086880312156112da578081fd5b6112e386611178565b94506112f160208701611178565b9350604086013567ffffffffffffffff8082111561130d578283fd5b61131989838a01611194565b9450606088013591508082111561132e578283fd5b61133a89838a01611194565b9350608088013591508082111561134f578283fd5b5061135c88828901611208565b9150509295509295909350565b600080600080600060a08688031215611380578081fd5b61138986611178565b945061139760208701611178565b93506040860135925060608601359150608086013567ffffffffffffffff8111156113c0578182fd5b61135c88828901611208565b600080604083850312156113de578182fd5b6113e783611178565b9150602083013580151581146113fb578182fd5b809150509250929050565b60008060408385031215611418578182fd5b61142183611178565b946020939093013593505050565b60008060408385031215611441578182fd5b823567ffffffffffffffff80821115611458578384fd5b818501915085601f83011261146b578384fd5b813560206114788261184d565b60405161148582826118c4565b8381528281019150858301600585901b870184018b10156114a4578889fd5b8896505b848710156114cd576114b981611178565b8352600196909601959183019183016114a8565b50965050860135925050808211156114e3578283fd5b506114f085828601611194565b9150509250929050565b60006020828403121561150b578081fd5b8135610621816119da565b600060208284031215611527578081fd5b8151610621816119da565b600060208284031215611543578081fd5b5035919050565b6000806040838503121561155c578182fd5b82359150602083013567ffffffffffffffff811115611579578182fd5b6114f085828601611208565b60008060408385031215611597578182fd5b823563ffffffff811681146115aa578283fd5b9150602083013567ffffffffffffffff811115611579578182fd5b6000815180845260208085019450808401835b838110156115f4578151875295820195908201906001016115d8565b509495945050505050565b60008151808452815b8181101561162457602081850181015186830182015201611608565b818111156116355782602083870101525b50601f01601f19169290920160200192915050565b6001600160a01b0386811682528516602082015260a060408201819052600090611676908301866115c5565b828103606084015261168881866115c5565b9050828103608084015261169c81856115ff565b98975050505050505050565b6001600160a01b03868116825285166020820152604081018490526060810183905260a0608082018190526000906116e2908301846115ff565b979650505050505050565b60208152600061062160208301846115c5565b60408152600061171360408301856115c5565b828103602084015261172581856115c5565b95945050505050565b60208152600061062160208301846115ff565b60208082526028908201527f455243313135353a204552433131353552656365697665722072656a656374656040820152676420746f6b656e7360c01b606082015260800190565b60208082526025908201527f455243313135353a207472616e7366657220746f20746865207a65726f206164604082015264647265737360d81b606082015260800190565b6020808252602a908201527f455243313135353a20696e73756666696369656e742062616c616e636520666f60408201526939103a3930b739b332b960b11b606082015260800190565b6020808252818101527f4f776e61626c653a2063616c6c6572206973206e6f7420746865206f776e6572604082015260600190565b600067ffffffffffffffff82111561186757611867611922565b5060051b60200190565b600082198211156118845761188461190c565b500190565b600181811c9082168061189d57607f821691505b602082108114156118be57634e487b7160e01b600052602260045260246000fd5b50919050565b601f8201601f1916810167ffffffffffffffff811182821017156118ea576118ea611922565b6040525050565b60006000198214156119055761190561190c565b5060010190565b634e487b7160e01b600052601160045260246000fd5b634e487b7160e01b600052604160045260246000fd5b600060033d111561194d57600481823e5160e01c5b90565b600060443d101561195e5790565b6040516003193d81016004833e81513d67ffffffffffffffff816024840111818411171561198e57505050505090565b82850191508151818111156119a65750505050505090565b843d87010160208285010111156119c05750505050505090565b6119cf602082860101876118c4565b509095945050505050565b6001600160e01b0319811681146108fb57600080fdfea2646970667358221220acca6fec4c264551313fecb7f86c1f52c401c07f9035820da461b3c22609b44d64736f6c63430008040033",
  "linkReferences": {},
  "deployedLinkReferences": {}
}